{
  "contractName": "Dapp",
  "abi": [
    {
      "constant": false,
      "inputs": [],
      "name": "renounceOwnership",
      "outputs": [],
      "payable": false,
      "stateMutability": "nonpayable",
      "type": "function"
    },
    {
      "constant": true,
      "inputs": [],
      "name": "owner",
      "outputs": [
        {
          "name": "",
          "type": "address"
        }
      ],
      "payable": false,
      "stateMutability": "view",
      "type": "function"
    },
    {
      "constant": true,
      "inputs": [],
      "name": "isOwner",
      "outputs": [
        {
          "name": "",
          "type": "bool"
        }
      ],
      "payable": false,
      "stateMutability": "view",
      "type": "function"
    },
    {
      "constant": false,
      "inputs": [
        {
          "name": "newOwner",
          "type": "address"
        }
      ],
      "name": "transferOwnership",
      "outputs": [],
      "payable": false,
      "stateMutability": "nonpayable",
      "type": "function"
    },
    {
      "inputs": [],
      "payable": false,
      "stateMutability": "nonpayable",
      "type": "constructor"
    },
    {
      "anonymous": false,
      "inputs": [
        {
          "indexed": false,
          "name": "dron_id",
          "type": "uint256"
        },
        {
          "indexed": false,
          "name": "plot_id",
          "type": "uint256"
        },
        {
          "indexed": false,
          "name": "cost_",
          "type": "uint256"
        }
      ],
      "name": "BookedDron",
      "type": "event"
    },
    {
      "anonymous": false,
      "inputs": [
        {
          "indexed": false,
          "name": "plot_id",
          "type": "uint256"
        },
        {
          "indexed": false,
          "name": "dron_id",
          "type": "uint256"
        }
      ],
      "name": "FumigatedPlot",
      "type": "event"
    },
    {
      "anonymous": false,
      "inputs": [
        {
          "indexed": true,
          "name": "previousOwner",
          "type": "address"
        },
        {
          "indexed": true,
          "name": "newOwner",
          "type": "address"
        }
      ],
      "name": "OwnershipTransferred",
      "type": "event"
    },
    {
      "constant": true,
      "inputs": [],
      "name": "getContAddress",
      "outputs": [
        {
          "name": "",
          "type": "address"
        }
      ],
      "payable": false,
      "stateMutability": "view",
      "type": "function"
    },
    {
      "constant": true,
      "inputs": [],
      "name": "getContOwner",
      "outputs": [
        {
          "name": "",
          "type": "address"
        }
      ],
      "payable": false,
      "stateMutability": "view",
      "type": "function"
    },
    {
      "constant": false,
      "inputs": [
        {
          "name": "owner_",
          "type": "address"
        },
        {
          "name": "max_Height_",
          "type": "uint256"
        },
        {
          "name": "min_Height_",
          "type": "uint256"
        },
        {
          "name": "cost_",
          "type": "uint8"
        },
        {
          "name": "p1_",
          "type": "uint8"
        },
        {
          "name": "p2_",
          "type": "uint8"
        },
        {
          "name": "p3_",
          "type": "uint8"
        },
        {
          "name": "p4_",
          "type": "uint8"
        },
        {
          "name": "p5_",
          "type": "uint8"
        }
      ],
      "name": "createDron",
      "outputs": [
        {
          "name": "",
          "type": "uint256"
        }
      ],
      "payable": false,
      "stateMutability": "nonpayable",
      "type": "function"
    },
    {
      "constant": false,
      "inputs": [
        {
          "name": "owner_",
          "type": "address"
        },
        {
          "name": "max_Height_",
          "type": "uint256"
        },
        {
          "name": "min_Height_",
          "type": "uint256"
        },
        {
          "name": "pesticide_",
          "type": "uint8"
        }
      ],
      "name": "createPlot",
      "outputs": [
        {
          "name": "",
          "type": "uint256"
        }
      ],
      "payable": false,
      "stateMutability": "nonpayable",
      "type": "function"
    },
    {
      "constant": false,
      "inputs": [
        {
          "name": "dron_id_",
          "type": "uint256"
        },
        {
          "name": "plot_id_",
          "type": "uint256"
        }
      ],
      "name": "bookDron",
      "outputs": [
        {
          "name": "",
          "type": "uint256"
        }
      ],
      "payable": false,
      "stateMutability": "nonpayable",
      "type": "function"
    },
    {
      "constant": true,
      "inputs": [],
      "name": "getPendingBooking",
      "outputs": [
        {
          "components": [
            {
              "name": "dron_id",
              "type": "uint256"
            },
            {
              "name": "plot_id",
              "type": "uint256"
            }
          ],
          "name": "",
          "type": "tuple[]"
        }
      ],
      "payable": false,
      "stateMutability": "view",
      "type": "function"
    },
    {
      "constant": false,
      "inputs": [
        {
          "name": "plot_id_",
          "type": "uint256"
        }
      ],
      "name": "fumigatePlot",
      "outputs": [
        {
          "name": "",
          "type": "uint256"
        }
      ],
      "payable": false,
      "stateMutability": "nonpayable",
      "type": "function"
    },
    {
      "constant": true,
      "inputs": [
        {
          "name": "plot_id_",
          "type": "uint256"
        }
      ],
      "name": "isBookedPlot",
      "outputs": [
        {
          "name": "",
          "type": "int256"
        }
      ],
      "payable": false,
      "stateMutability": "view",
      "type": "function"
    },
    {
      "constant": true,
      "inputs": [
        {
          "name": "dron_id_",
          "type": "uint256"
        }
      ],
      "name": "isBookedDron",
      "outputs": [
        {
          "name": "",
          "type": "int256"
        }
      ],
      "payable": false,
      "stateMutability": "view",
      "type": "function"
    },
    {
      "constant": false,
      "inputs": [
        {
          "name": "id_dron_",
          "type": "uint256"
        },
        {
          "name": "max_Height_",
          "type": "uint256"
        },
        {
          "name": "min_Height_",
          "type": "uint256"
        },
        {
          "name": "pesticide_",
          "type": "uint256"
        }
      ],
      "name": "isCompatibleDron",
      "outputs": [
        {
          "name": "",
          "type": "uint256"
        }
      ],
      "payable": false,
      "stateMutability": "nonpayable",
      "type": "function"
    },
    {
      "constant": false,
      "inputs": [
        {
          "name": "dron_id_",
          "type": "uint256"
        },
        {
          "name": "plot_id_",
          "type": "uint256"
        }
      ],
      "name": "isCompatibleDronPlot",
      "outputs": [
        {
          "name": "",
          "type": "uint256"
        }
      ],
      "payable": false,
      "stateMutability": "nonpayable",
      "type": "function"
    },
    {
      "constant": true,
      "inputs": [],
      "name": "getLastDronId",
      "outputs": [
        {
          "name": "",
          "type": "uint256"
        }
      ],
      "payable": false,
      "stateMutability": "view",
      "type": "function"
    },
    {
      "constant": false,
      "inputs": [
        {
          "name": "id_",
          "type": "uint256"
        }
      ],
      "name": "getDronInfo",
      "outputs": [
        {
          "name": "max_Height",
          "type": "uint256"
        },
        {
          "name": "min_Height",
          "type": "uint256"
        },
        {
          "name": "cost",
          "type": "uint256"
        },
        {
          "name": "pesticides",
          "type": "uint8[]"
        },
        {
          "name": "owner",
          "type": "address"
        }
      ],
      "payable": false,
      "stateMutability": "nonpayable",
      "type": "function"
    },
    {
      "constant": true,
      "inputs": [
        {
          "name": "dron_id_",
          "type": "uint256"
        }
      ],
      "name": "getDronCost",
      "outputs": [
        {
          "name": "",
          "type": "uint256"
        }
      ],
      "payable": false,
      "stateMutability": "view",
      "type": "function"
    },
    {
      "constant": true,
      "inputs": [],
      "name": "getLastPlotId",
      "outputs": [
        {
          "name": "",
          "type": "uint256"
        }
      ],
      "payable": false,
      "stateMutability": "view",
      "type": "function"
    },
    {
      "constant": false,
      "inputs": [
        {
          "name": "id_",
          "type": "uint256"
        }
      ],
      "name": "getPlotInfo",
      "outputs": [
        {
          "name": "max_Height",
          "type": "uint256"
        },
        {
          "name": "min_Height",
          "type": "uint256"
        },
        {
          "name": "pesticide",
          "type": "uint8"
        },
        {
          "name": "owner",
          "type": "address"
        }
      ],
      "payable": false,
      "stateMutability": "nonpayable",
      "type": "function"
    },
    {
      "constant": true,
      "inputs": [
        {
          "name": "owner_",
          "type": "address"
        }
      ],
      "name": "getPlotsByOwner",
      "outputs": [
        {
          "name": "",
          "type": "uint256[]"
        }
      ],
      "payable": false,
      "stateMutability": "view",
      "type": "function"
    },
    {
      "constant": false,
      "inputs": [
        {
          "name": "plot_id_",
          "type": "uint256"
        }
      ],
      "name": "searchDronAvailable",
      "outputs": [
        {
          "name": "",
          "type": "uint256"
        }
      ],
      "payable": false,
      "stateMutability": "nonpayable",
      "type": "function"
    },
    {
      "constant": false,
      "inputs": [
        {
          "name": "units_",
          "type": "uint256"
        }
      ],
      "name": "buyTokensFDT",
      "outputs": [],
      "payable": true,
      "stateMutability": "payable",
      "type": "function"
    },
    {
      "constant": true,
      "inputs": [
        {
          "name": "account_",
          "type": "address"
        }
      ],
      "name": "getAcountBalance",
      "outputs": [
        {
          "name": "",
          "type": "uint256"
        }
      ],
      "payable": false,
      "stateMutability": "view",
      "type": "function"
    },
    {
      "constant": true,
      "inputs": [
        {
          "name": "max_Height_",
          "type": "uint256"
        },
        {
          "name": "min_Height_",
          "type": "uint256"
        },
        {
          "name": "pesticide_",
          "type": "uint8"
        },
        {
          "name": "start_point_",
          "type": "uint256"
        }
      ],
      "name": "getDronByFilters",
      "outputs": [
        {
          "name": "",
          "type": "uint256"
        }
      ],
      "payable": false,
      "stateMutability": "view",
      "type": "function"
    }
  ],
  "bytecode": "0x60806040523480156200001157600080fd5b50336000806101000a81548173ffffffffffffffffffffffffffffffffffffffff021916908373ffffffffffffffffffffffffffffffffffffffff1602179055506000809054906101000a900473ffffffffffffffffffffffffffffffffffffffff1673ffffffffffffffffffffffffffffffffffffffff16600073ffffffffffffffffffffffffffffffffffffffff167f8be0079c531659141344cd1fd0a4f28419497f9722a3daafe3b4186f6b6457e060405160405180910390a330600160006101000a81548173ffffffffffffffffffffffffffffffffffffffff021916908373ffffffffffffffffffffffffffffffffffffffff16021790555033600260006101000a81548173ffffffffffffffffffffffffffffffffffffffff021916908373ffffffffffffffffffffffffffffffffffffffff1602179055506200015a620002bd565b604051809103906000f08015801562000177573d6000803e3d6000fd5b50600360006101000a81548173ffffffffffffffffffffffffffffffffffffffff021916908373ffffffffffffffffffffffffffffffffffffffff160217905550620001c2620002ce565b604051809103906000f080158015620001df573d6000803e3d6000fd5b50600460006101000a81548173ffffffffffffffffffffffffffffffffffffffff021916908373ffffffffffffffffffffffffffffffffffffffff160217905550600160009054906101000a900473ffffffffffffffffffffffffffffffffffffffff166200024d620002df565b62000259919062000301565b604051809103906000f08015801562000276573d6000803e3d6000fd5b50600d60006101000a81548173ffffffffffffffffffffffffffffffffffffffff021916908373ffffffffffffffffffffffffffffffffffffffff16021790555062000352565b604051612c528062003b6983390190565b60405161285d80620067bb83390190565b60405161169d806200901883390190565b620002fb816200031e565b82525050565b6000602082019050620003186000830184620002f0565b92915050565b60006200032b8262000332565b9050919050565b600073ffffffffffffffffffffffffffffffffffffffff82169050919050565b61380780620003626000396000f3fe608060405260043610610143576000357c010000000000000000000000000000000000000000000000000000000090048063070f551e146101485780630c6848421461018557806310b576ad146101a157806318d0cb4d146101de5780631bcb68b1146102095780631d56ed92146102345780631db29a201461027157806323417b80146102b15780633e8cf780146102dc578063715018a614610319578063821ceb85146103305780638cdb29171461036d5780638da5cb5b146103aa5780638f32d59b146103d5578063a9653b4614610400578063aa3485b41461043d578063ae5e3e2a1461047a578063b4177ee3146104a5578063b504eed6146104e2578063b8e899681461051f578063d8b51e0b1461055c578063ed9bfe9414610587578063f2fde38b146105c4578063fa02ef6e146105ed578063ffcce3281461062a575b600080fd5b34801561015457600080fd5b5061016f600480360361016a91908101906129e1565b61066b565b60405161017c91906134ce565b60405180910390f35b61019f600480360361019a91908101906129e1565b610740565b005b3480156101ad57600080fd5b506101c860048036036101c39190810190612a33565b610a0c565b6040516101d591906134ce565b60405180910390f35b3480156101ea57600080fd5b506101f3610b0d565b60405161020091906132b4565b60405180910390f35b34801561021557600080fd5b5061021e610b80565b60405161022b919061317f565b60405180910390f35b34801561024057600080fd5b5061025b60048036036102569190810190612bc4565b610baa565b60405161026891906134ce565b60405180910390f35b34801561027d57600080fd5b50610298600480360361029391908101906129e1565b610c88565b6040516102a894939291906135a3565b60405180910390f35b3480156102bd57600080fd5b506102c6610d6c565b6040516102d391906134ce565b60405180910390f35b3480156102e857600080fd5b5061030360048036036102fe9190810190612afe565b610e3a565b60405161031091906134ce565b60405180910390f35b34801561032557600080fd5b5061032e610f87565b005b34801561033c57600080fd5b506103576004803603610352919081019061288f565b61108f565b60405161036491906134ce565b60405180910390f35b34801561037957600080fd5b50610394600480360361038f91908101906129e1565b611268565b6040516103a19190613313565b60405180910390f35b3480156103b657600080fd5b506103bf611285565b6040516103cc919061317f565b60405180910390f35b3480156103e157600080fd5b506103ea6112ae565b6040516103f791906132f8565b60405180910390f35b34801561040c57600080fd5b50610427600480360361042291908101906128f2565b611305565b60405161043491906134ce565b60405180910390f35b34801561044957600080fd5b50610464600480360361045f919081019061283d565b611571565b60405161047191906134ce565b60405180910390f35b34801561048657600080fd5b5061048f611641565b60405161049c919061317f565b60405180910390f35b3480156104b157600080fd5b506104cc60048036036104c79190810190612a33565b61166b565b6040516104d991906134ce565b60405180910390f35b3480156104ee57600080fd5b50610509600480360361050491908101906129e1565b611cad565b6040516105169190613313565b60405180910390f35b34801561052b57600080fd5b50610546600480360361054191908101906129e1565b611cca565b60405161055391906134ce565b60405180910390f35b34801561056857600080fd5b5061057161203e565b60405161057e91906134ce565b60405180910390f35b34801561059357600080fd5b506105ae60048036036105a9919081019061283d565b61210c565b6040516105bb91906132d6565b60405180910390f35b3480156105d057600080fd5b506105eb60048036036105e6919081019061283d565b6121a3565b005b3480156105f957600080fd5b50610614600480360361060f91908101906129e1565b6121f8565b60405161062191906134ce565b60405180910390f35b34801561063657600080fd5b50610651600480360361064c91908101906129e1565b612492565b604051610662959493929190613549565b60405180910390f35b600080600360009054906101000a900473ffffffffffffffffffffffffffffffffffffffff1690508073ffffffffffffffffffffffffffffffffffffffff1663070f551e846040518263ffffffff167c01000000000000000000000000000000000000000000000000000000000281526004016106e891906134ce565b60206040518083038186803b15801561070057600080fd5b505afa158015610714573d6000803e3d6000fd5b505050506040513d601f19601f820116820180604052506107389190810190612a0a565b915050919050565b600081111515610785576040517f08c379a000000000000000000000000000000000000000000000000000000000815260040161077c9061346e565b60405180910390fd5b6000600d60009054906101000a900473ffffffffffffffffffffffffffffffffffffffff1673ffffffffffffffffffffffffffffffffffffffff166318160ddd6040518163ffffffff167c010000000000000000000000000000000000000000000000000000000002815260040160206040518083038186803b15801561080b57600080fd5b505afa15801561081f573d6000803e3d6000fd5b505050506040513d601f19601f820116820180604052506108439190810190612a0a565b9050600066038d7ea4c68000830290508183101515610897576040517f08c379a000000000000000000000000000000000000000000000000000000000815260040161088e9061344e565b60405180910390fd5b8034101515156108dc576040517f08c379a00000000000000000000000000000000000000000000000000000000081526004016108d39061340e565b60405180910390fd5b600033905060008234039050600d60009054906101000a900473ffffffffffffffffffffffffffffffffffffffff1673ffffffffffffffffffffffffffffffffffffffff1663a9059cbb83876040518363ffffffff167c01000000000000000000000000000000000000000000000000000000000281526004016109619291906131ec565b602060405180830381600087803b15801561097b57600080fd5b505af115801561098f573d6000803e3d6000fd5b505050506040513d601f19601f820116820180604052506109b391908101906129b8565b506000811115610a05573373ffffffffffffffffffffffffffffffffffffffff166108fc829081150290604051600060405180830381858888f19350505050158015610a03573d6000803e3d6000fd5b505b5050505050565b600080600080600080600460009054906101000a900473ffffffffffffffffffffffffffffffffffffffff1690508073ffffffffffffffffffffffffffffffffffffffff16631db29a20886040518263ffffffff167c0100000000000000000000000000000000000000000000000000000000028152600401610a8f91906134ce565b608060405180830381600087803b158015610aa957600080fd5b505af1158015610abd573d6000803e3d6000fd5b505050506040513d601f19601f82011682018060405250610ae19190810190612b61565b80955081965082975083985050505050610b008886868660ff16610e3a565b9550505050505092915050565b6060600b805480602002602001604051908101604052809291908181526020016000905b82821015610b7757838290600052602060002090600202016040805190810160405290816000820154815260200160018201548152505081526020019060010190610b31565b50505050905090565b6000600160009054906101000a900473ffffffffffffffffffffffffffffffffffffffff16905090565b600080600360009054906101000a900473ffffffffffffffffffffffffffffffffffffffff1690508073ffffffffffffffffffffffffffffffffffffffff16631d56ed92878787876040518563ffffffff167c0100000000000000000000000000000000000000000000000000000000028152600401610c2d94939291906135e8565b60206040518083038186803b158015610c4557600080fd5b505afa158015610c59573d6000803e3d6000fd5b505050506040513d601f19601f82011682018060405250610c7d9190810190612a0a565b915050949350505050565b6000806000806000600460009054906101000a900473ffffffffffffffffffffffffffffffffffffffff1690508073ffffffffffffffffffffffffffffffffffffffff16631db29a20876040518263ffffffff167c0100000000000000000000000000000000000000000000000000000000028152600401610d0a91906134ce565b608060405180830381600087803b158015610d2457600080fd5b505af1158015610d38573d6000803e3d6000fd5b505050506040513d601f19601f82011682018060405250610d5c9190810190612b61565b9450945094509450509193509193565b6000806000600460009054906101000a900473ffffffffffffffffffffffffffffffffffffffff1690508073ffffffffffffffffffffffffffffffffffffffff1663a8e5862d6040518163ffffffff167c010000000000000000000000000000000000000000000000000000000002815260040160206040518083038186803b158015610df857600080fd5b505afa158015610e0c573d6000803e3d6000fd5b505050506040513d601f19601f82011682018060405250610e309190810190612a0a565b9150819250505090565b6000806000806060600080600360009054906101000a900473ffffffffffffffffffffffffffffffffffffffff1690508073ffffffffffffffffffffffffffffffffffffffff1663ffcce3288c6040518263ffffffff167c0100000000000000000000000000000000000000000000000000000000028152600401610ebf91906134ce565b600060405180830381600087803b158015610ed957600080fd5b505af1158015610eed573d6000803e3d6000fd5b505050506040513d6000823e3d601f19601f82011682018060405250610f169190810190612a6f565b809650819750829850839950849a505050505050898610158015610f3a5750888511155b8015610f60575060018389815181101515610f5157fe5b9060200190602002015160ff16145b15610f745760019650505050505050610f7f565b600096505050505050505b949350505050565b610f8f6112ae565b1515610fd0576040517f08c379a0000000000000000000000000000000000000000000000000000000008152600401610fc79061342e565b60405180910390fd5b600073ffffffffffffffffffffffffffffffffffffffff166000809054906101000a900473ffffffffffffffffffffffffffffffffffffffff1673ffffffffffffffffffffffffffffffffffffffff167f8be0079c531659141344cd1fd0a4f28419497f9722a3daafe3b4186f6b6457e060405160405180910390a360008060006101000a81548173ffffffffffffffffffffffffffffffffffffffff021916908373ffffffffffffffffffffffffffffffffffffffff160217905550565b600080600460009054906101000a900473ffffffffffffffffffffffffffffffffffffffff16905060008173ffffffffffffffffffffffffffffffffffffffff1663d6b96050888888886040518563ffffffff167c01000000000000000000000000000000000000000000000000000000000281526004016111149493929190613215565b602060405180830381600087803b15801561112e57600080fd5b505af1158015611142573d6000803e3d6000fd5b505050506040513d601f19601f820116820180604052506111669190810190612a0a565b9050866009600083815260200190815260200160002060006101000a81548173ffffffffffffffffffffffffffffffffffffffff021916908373ffffffffffffffffffffffffffffffffffffffff160217905550600a60008873ffffffffffffffffffffffffffffffffffffffff1673ffffffffffffffffffffffffffffffffffffffff1681526020019081526020016000208190806001815401808255809150509060018203906000526020600020016000909192909190915055507fffffffffffffffffffffffffffffffffffffffffffffffffffffffffffffffff60086000838152602001908152602001600020819055508092505050949350505050565b600060086000838152602001908152602001600020549050919050565b60008060009054906101000a900473ffffffffffffffffffffffffffffffffffffffff16905090565b60008060009054906101000a900473ffffffffffffffffffffffffffffffffffffffff1673ffffffffffffffffffffffffffffffffffffffff163373ffffffffffffffffffffffffffffffffffffffff1614905090565b6000606060056040519080825280602002602001820160405280156113395781602001602082028038833980820191505090505b5090508681600081518110151561134c57fe5b9060200190602002019060ff16908160ff16815250508581600181518110151561137257fe5b9060200190602002019060ff16908160ff16815250508481600281518110151561139857fe5b9060200190602002019060ff16908160ff1681525050838160038151811015156113be57fe5b9060200190602002019060ff16908160ff1681525050828160048151811015156113e457fe5b9060200190602002019060ff16908160ff16815250506000600360009054906101000a900473ffffffffffffffffffffffffffffffffffffffff16905060008173ffffffffffffffffffffffffffffffffffffffff1663c36b56788e8e8e8e886040518663ffffffff167c010000000000000000000000000000000000000000000000000000000002815260040161148095949392919061325a565b602060405180830381600087803b15801561149a57600080fd5b505af11580156114ae573d6000803e3d6000fd5b505050506040513d601f19601f820116820180604052506114d29190810190612a0a565b90508c6006600083815260200190815260200160002060006101000a81548173ffffffffffffffffffffffffffffffffffffffff021916908373ffffffffffffffffffffffffffffffffffffffff1602179055507fffffffffffffffffffffffffffffffffffffffffffffffffffffffffffffffff60076000838152602001908152602001600020819055508093505050509998505050505050505050565b6000600d60009054906101000a900473ffffffffffffffffffffffffffffffffffffffff1673ffffffffffffffffffffffffffffffffffffffff166370a08231836040518263ffffffff167c01000000000000000000000000000000000000000000000000000000000281526004016115ea919061317f565b60206040518083038186803b15801561160257600080fd5b505afa158015611616573d6000803e3d6000fd5b505050506040513d601f19601f8201168201806040525061163a9190810190612a0a565b9050919050565b6000600260009054906101000a900473ffffffffffffffffffffffffffffffffffffffff16905090565b6000600b80549050600c819055507fffffffffffffffffffffffffffffffffffffffffffffffffffffffffffffffff60076000858152602001908152602001600020541415156116f0576040517f08c379a00000000000000000000000000000000000000000000000000000000081526004016116e7906133ee565b60405180910390fd5b7fffffffffffffffffffffffffffffffffffffffffffffffffffffffffffffffff6008600084815260200190815260200160002054141515611767576040517f08c379a000000000000000000000000000000000000000000000000000000000815260040161175e9061348e565b60405180910390fd5b6000600360009054906101000a900473ffffffffffffffffffffffffffffffffffffffff16905060008173ffffffffffffffffffffffffffffffffffffffff1663070f551e866040518263ffffffff167c01000000000000000000000000000000000000000000000000000000000281526004016117e591906134ce565b60206040518083038186803b1580156117fd57600080fd5b505afa158015611811573d6000803e3d6000fd5b505050506040513d601f19601f820116820180604052506118359190810190612a0a565b90506000600460009054906101000a900473ffffffffffffffffffffffffffffffffffffffff16905060008173ffffffffffffffffffffffffffffffffffffffff1663a1f45dd6876040518263ffffffff167c01000000000000000000000000000000000000000000000000000000000281526004016118b591906134ce565b60206040518083038186803b1580156118cd57600080fd5b505afa1580156118e1573d6000803e3d6000fd5b505050506040513d601f19601f820116820180604052506119059190810190612866565b90503373ffffffffffffffffffffffffffffffffffffffff168173ffffffffffffffffffffffffffffffffffffffff16141515611977576040517f08c379a000000000000000000000000000000000000000000000000000000000815260040161196e9061332e565b60405180910390fd5b60016119838888610a0c565b1415156119c5576040517f08c379a00000000000000000000000000000000000000000000000000000000081526004016119bc9061338e565b60405180910390fd5b82600d60009054906101000a900473ffffffffffffffffffffffffffffffffffffffff1673ffffffffffffffffffffffffffffffffffffffff166370a08231336040518263ffffffff167c0100000000000000000000000000000000000000000000000000000000028152600401611a3d919061319a565b60206040518083038186803b158015611a5557600080fd5b505afa158015611a69573d6000803e3d6000fd5b505050506040513d601f19601f82011682018060405250611a8d9190810190612a0a565b111515611acf576040517f08c379a0000000000000000000000000000000000000000000000000000000008152600401611ac69061334e565b60405180910390fd5b600d60009054906101000a900473ffffffffffffffffffffffffffffffffffffffff1673ffffffffffffffffffffffffffffffffffffffff16634f8f4dab33600160009054906101000a900473ffffffffffffffffffffffffffffffffffffffff16866040518463ffffffff167c0100000000000000000000000000000000000000000000000000000000028152600401611b6c939291906131b5565b602060405180830381600087803b158015611b8657600080fd5b505af1158015611b9a573d6000803e3d6000fd5b505050506040513d601f19601f82011682018060405250611bbe91908101906129b8565b50600c546007600089815260200190815260200160002081905550600c546008600088815260200190815260200160002081905550611bfb6126b1565b6040805190810160405280898152602001888152509050600b81908060018154018082558091505090600182039060005260206000209060020201600090919290919091506000820151816000015560208201518160010155505050600b80549050600c819055507f8de7caa9a63014964fa027483963e20a0c03bfe8d8294136d39927985edfb3c6888886604051611c9693929190613512565b60405180910390a160009550505050505092915050565b600060076000838152602001908152602001600020549050919050565b6000611cd46112ae565b1515611d15576040517f08c379a0000000000000000000000000000000000000000000000000000000008152600401611d0c9061342e565b60405180910390fd5b600b80549050600c819055506000600860008481526020019081526020016000205412151515611d7a576040517f08c379a0000000000000000000000000000000000000000000000000000000008152600401611d71906133ae565b60405180910390fd5b6000600c54111515611dc1576040517f08c379a0000000000000000000000000000000000000000000000000000000008152600401611db8906134ae565b60405180910390fd5b6000600860008481526020019081526020016000205490506000600b82815481101515611dea57fe5b90600052602060002090600202016000015490506000600760008381526020019081526020016000205412151515611e57576040517f08c379a0000000000000000000000000000000000000000000000000000000008152600401611e4e906133ce565b60405180910390fd5b6001600c541115611f33576000600b6001600c5403815481101515611e7857fe5b90600052602060002090600202016000015490506000600b6001600c5403815481101515611ea257fe5b906000526020600020906002020160010154905083600860008381526020019081526020016000208190555083600760008481526020019081526020016000208190555080600b85815481101515611ef657fe5b90600052602060002090600202016001018190555081600b85815481101515611f1b57fe5b90600052602060002090600202016000018190555050505b600b6001600c5403815481101515611f4757fe5b906000526020600020906002020160008082016000905560018201600090555050600b805480919060019003611f7d91906126cb565b50600b80549050600c819055507fffffffffffffffffffffffffffffffffffffffffffffffffffffffffffffffff60076000838152602001908152602001600020819055507fffffffffffffffffffffffffffffffffffffffffffffffffffffffffffffffff60086000868152602001908152602001600020819055507f3752c12f708ec0b117de086156e77f2f711b993b502e7d28c133846f18be2208848260405161202b9291906134e9565b60405180910390a1600192505050919050565b6000806000600360009054906101000a900473ffffffffffffffffffffffffffffffffffffffff1690508073ffffffffffffffffffffffffffffffffffffffff1663a8e5862d6040518163ffffffff167c010000000000000000000000000000000000000000000000000000000002815260040160206040518083038186803b1580156120ca57600080fd5b505afa1580156120de573d6000803e3d6000fd5b505050506040513d601f19601f820116820180604052506121029190810190612a0a565b9150819250505090565b6060600a60008373ffffffffffffffffffffffffffffffffffffffff1673ffffffffffffffffffffffffffffffffffffffff16815260200190815260200160002080548060200260200160405190810160405280929190818152602001828054801561219757602002820191906000526020600020905b815481526020019060010190808311612183575b50505050509050919050565b6121ab6112ae565b15156121ec576040517f08c379a00000000000000000000000000000000000000000000000000000000081526004016121e39061342e565b60405180910390fd5b6121f581612581565b50565b600080600080600080600080600090506000600a90507fffffffffffffffffffffffffffffffffffffffffffffffffffffffffffffffff600860008c8152602001908152602001600020541415612482576000600460009054906101000a900473ffffffffffffffffffffffffffffffffffffffff1690506000600360009054906101000a900473ffffffffffffffffffffffffffffffffffffffff1690508173ffffffffffffffffffffffffffffffffffffffff16631db29a208d6040518263ffffffff167c01000000000000000000000000000000000000000000000000000000000281526004016122ec91906134ce565b608060405180830381600087803b15801561230657600080fd5b505af115801561231a573d6000803e3d6000fd5b505050506040513d601f19601f8201168201806040525061233e9190810190612b61565b809a50819b50829c50839d50505050505b60008560ff16141561247f578073ffffffffffffffffffffffffffffffffffffffff16631d56ed928b8b8b60018b016040518563ffffffff167c01000000000000000000000000000000000000000000000000000000000281526004016123b994939291906135e8565b60206040518083038186803b1580156123d157600080fd5b505afa1580156123e5573d6000803e3d6000fd5b505050506040513d601f19601f820116820180604052506124099190810190612a0a565b9550600086141561241d576001945061245e565b7fffffffffffffffffffffffffffffffffffffffffffffffffffffffffffffffff6007600088815260200190815260200160002054141561245d57600194505b5b83806001019450508260ff168460ff1610151561247a57600194505b61234f565b50505b8398505050505050505050919050565b60008060006060600080600360009054906101000a900473ffffffffffffffffffffffffffffffffffffffff1690508073ffffffffffffffffffffffffffffffffffffffff1663ffcce328886040518263ffffffff167c010000000000000000000000000000000000000000000000000000000002815260040161251691906134ce565b600060405180830381600087803b15801561253057600080fd5b505af1158015612544573d6000803e3d6000fd5b505050506040513d6000823e3d601f19601f8201168201806040525061256d9190810190612a6f565b955095509550955095505091939590929450565b600073ffffffffffffffffffffffffffffffffffffffff168173ffffffffffffffffffffffffffffffffffffffff16141515156125f3576040517f08c379a00000000000000000000000000000000000000000000000000000000081526004016125ea9061336e565b60405180910390fd5b8073ffffffffffffffffffffffffffffffffffffffff166000809054906101000a900473ffffffffffffffffffffffffffffffffffffffff1673ffffffffffffffffffffffffffffffffffffffff167f8be0079c531659141344cd1fd0a4f28419497f9722a3daafe3b4186f6b6457e060405160405180910390a3806000806101000a81548173ffffffffffffffffffffffffffffffffffffffff021916908373ffffffffffffffffffffffffffffffffffffffff16021790555050565b604080519081016040528060008152602001600081525090565b8154818355818111156126f8576002028160020283600052602060002091820191016126f791906126fd565b5b505050565b61272991905b8082111561272557600080820160009055600182016000905550600201612703565b5090565b90565b60006127388235613750565b905092915050565b600061274c8251613750565b905092915050565b600082601f830112151561276757600080fd5b815161277a6127758261365a565b61362d565b9150818183526020840193506020810190508385602084028201111561279f57600080fd5b60005b838110156127cf57816127b58882612829565b8452602084019350602083019250506001810190506127a2565b5050505092915050565b60006127e58251613762565b905092915050565b60006127f9823561376e565b905092915050565b600061280d825161376e565b905092915050565b60006128218235613778565b905092915050565b60006128358251613778565b905092915050565b60006020828403121561284f57600080fd5b600061285d8482850161272c565b91505092915050565b60006020828403121561287857600080fd5b600061288684828501612740565b91505092915050565b600080600080608085870312156128a557600080fd5b60006128b38782880161272c565b94505060206128c4878288016127ed565b93505060406128d5878288016127ed565b92505060606128e687828801612815565b91505092959194509250565b60008060008060008060008060006101208a8c03121561291157600080fd5b600061291f8c828d0161272c565b99505060206129308c828d016127ed565b98505060406129418c828d016127ed565b97505060606129528c828d01612815565b96505060806129638c828d01612815565b95505060a06129748c828d01612815565b94505060c06129858c828d01612815565b93505060e06129968c828d01612815565b9250506101006129a88c828d01612815565b9150509295985092959850929598565b6000602082840312156129ca57600080fd5b60006129d8848285016127d9565b91505092915050565b6000602082840312156129f357600080fd5b6000612a01848285016127ed565b91505092915050565b600060208284031215612a1c57600080fd5b6000612a2a84828501612801565b91505092915050565b60008060408385031215612a4657600080fd5b6000612a54858286016127ed565b9250506020612a65858286016127ed565b9150509250929050565b600080600080600060a08688031215612a8757600080fd5b6000612a9588828901612801565b9550506020612aa688828901612801565b9450506040612ab788828901612801565b935050606086015167ffffffffffffffff811115612ad457600080fd5b612ae088828901612754565b9250506080612af188828901612740565b9150509295509295909350565b60008060008060808587031215612b1457600080fd5b6000612b22878288016127ed565b9450506020612b33878288016127ed565b9350506040612b44878288016127ed565b9250506060612b55878288016127ed565b91505092959194509250565b60008060008060808587031215612b7757600080fd5b6000612b8587828801612801565b9450506020612b9687828801612801565b9350506040612ba787828801612829565b9250506060612bb887828801612740565b91505092959194509250565b60008060008060808587031215612bda57600080fd5b6000612be8878288016127ed565b9450506020612bf9878288016127ed565b9350506040612c0a87828801612815565b9250506060612c1b878288016127ed565b91505092959194509250565b612c3081613785565b82525050565b612c3f816136f1565b82525050565b6000612c50826136a9565b808452602084019350612c6283613682565b60005b82811015612c9457612c78868351613123565b612c81826136ca565b9150604086019550600181019050612c65565b50849250505092915050565b6000612cab826136b4565b808452602084019350612cbd8361368f565b60005b82811015612cef57612cd3868351613152565b612cdc826136d7565b9150602086019550600181019050612cc0565b50849250505092915050565b6000612d06826136bf565b808452602084019350612d188361369c565b60005b82811015612d4a57612d2e868351613170565b612d37826136e4565b9150602086019550600181019050612d1b565b50849250505092915050565b612d5f81613703565b82525050565b612d6e8161370f565b82525050565b6000603582527f4c61207265736572766120736f6c6f206c61207075656461206861636572206560208301527f6c206475656e6f206465206c612070617263656c6100000000000000000000006040830152606082019050919050565b6000601a82527f436f737465206d61796f722071756520656c2062616c616e63650000000000006020830152604082019050919050565b6000602682527f4f776e61626c653a206e6577206f776e657220697320746865207a65726f206160208301527f64647265737300000000000000000000000000000000000000000000000000006040830152606082019050919050565b6000601d82527f44726f6e20792070617263656c61206e6f20636f6d70617469626c65730000006020830152604082019050919050565b6000602882527f4c612070617263656c61206e6f20657374c3a12070656e6469656e746520646560208301527f2066756d696761720000000000000000000000000000000000000000000000006040830152606082019050919050565b6000602582527f456c2064726f6e206e6f20657374c3a12070656e6469656e746520646520667560208301527f6d696761720000000000000000000000000000000000000000000000000000006040830152606082019050919050565b6000601182527f44726f6e2079612072657365727661646f0000000000000000000000000000006020830152604082019050919050565b6000602b82527f43616e74696461642064652045544820696e737566696369656e74652070617260208301527f61206c6120636f6d7072610000000000000000000000000000000000000000006040830152606082019050919050565b6000602082527f4f776e61626c653a2063616c6c6572206973206e6f7420746865206f776e65726020830152604082019050919050565b6000602082527f4e6f2071756564616e20746f6b656e732046445420737566696369656e7465736020830152604082019050919050565b6000601a82527f43616e746964616420646520746f6b656e206e6f20766c6964610000000000006020830152604082019050919050565b6000601482527f50617263656c61207961207265736572766164610000000000000000000000006020830152604082019050919050565b6000602582527f4e6f206861792072657365727661732070656e6469656e74657320646520667560208301527f6d696761720000000000000000000000000000000000000000000000000000006040830152606082019050919050565b6040820160008201516131396000850182613152565b50602082015161314c6020850182613152565b50505050565b61315b81613739565b82525050565b61316a816137bb565b82525050565b61317981613743565b82525050565b60006020820190506131946000830184612c36565b92915050565b60006020820190506131af6000830184612c27565b92915050565b60006060820190506131ca6000830186612c27565b6131d76020830185612c36565b6131e46040830184613152565b949350505050565b60006040820190506132016000830185612c36565b61320e6020830184613152565b9392505050565b600060808201905061322a6000830187612c36565b6132376020830186613152565b6132446040830185613152565b6132516060830184613170565b95945050505050565b600060a08201905061326f6000830188612c36565b61327c6020830187613152565b6132896040830186613152565b6132966060830185613161565b81810360808301526132a88184612cfb565b90509695505050505050565b600060208201905081810360008301526132ce8184612c45565b905092915050565b600060208201905081810360008301526132f08184612ca0565b905092915050565b600060208201905061330d6000830184612d56565b92915050565b60006020820190506133286000830184612d65565b92915050565b6000602082019050818103600083015261334781612d74565b9050919050565b6000602082019050818103600083015261336781612dd1565b9050919050565b6000602082019050818103600083015261338781612e08565b9050919050565b600060208201905081810360008301526133a781612e65565b9050919050565b600060208201905081810360008301526133c781612e9c565b9050919050565b600060208201905081810360008301526133e781612ef9565b9050919050565b6000602082019050818103600083015261340781612f56565b9050919050565b6000602082019050818103600083015261342781612f8d565b9050919050565b6000602082019050818103600083015261344781612fea565b9050919050565b6000602082019050818103600083015261346781613021565b9050919050565b6000602082019050818103600083015261348781613058565b9050919050565b600060208201905081810360008301526134a78161308f565b9050919050565b600060208201905081810360008301526134c7816130c6565b9050919050565b60006020820190506134e36000830184613152565b92915050565b60006040820190506134fe6000830185613152565b61350b6020830184613152565b9392505050565b60006060820190506135276000830186613152565b6135346020830185613152565b6135416040830184613152565b949350505050565b600060a08201905061355e6000830188613152565b61356b6020830187613152565b6135786040830186613152565b818103606083015261358a8185612cfb565b90506135996080830184612c36565b9695505050505050565b60006080820190506135b86000830187613152565b6135c56020830186613152565b6135d26040830185613170565b6135df6060830184612c36565b95945050505050565b60006080820190506135fd6000830187613152565b61360a6020830186613152565b6136176040830185613170565b6136246060830184613152565b95945050505050565b6000604051905081810181811067ffffffffffffffff8211171561365057600080fd5b8060405250919050565b600067ffffffffffffffff82111561367157600080fd5b602082029050602081019050919050565b6000602082019050919050565b6000602082019050919050565b6000602082019050919050565b600081519050919050565b600081519050919050565b600081519050919050565b6000602082019050919050565b6000602082019050919050565b6000602082019050919050565b60006136fc82613719565b9050919050565b60008115159050919050565b6000819050919050565b600073ffffffffffffffffffffffffffffffffffffffff82169050919050565b6000819050919050565b600060ff82169050919050565b600061375b82613719565b9050919050565b60008115159050919050565b6000819050919050565b600060ff82169050919050565b600061379082613797565b9050919050565b60006137a2826137a9565b9050919050565b60006137b482613719565b9050919050565b60006137c682613743565b905091905056fea265627a7a723058203a4344e33ad361734d43df7c627b4ade8d41be5796bea3d16c0d10aacbd1eea96c6578706572696d656e74616cf5003760806040526020604051908101604052806000815250600890805190602001906200002c929190620002c9565b503480156200003a57600080fd5b50620000786301ffc9a77c010000000000000000000000000000000000000000000000000000000002620001a2640100000000026401000000009004565b620000b56380ac58cd7c010000000000000000000000000000000000000000000000000000000002620001a2640100000000026401000000009004565b33600560006101000a81548173ffffffffffffffffffffffffffffffffffffffff021916908373ffffffffffffffffffffffffffffffffffffffff160217905550600560009054906101000a900473ffffffffffffffffffffffffffffffffffffffff1673ffffffffffffffffffffffffffffffffffffffff16600073ffffffffffffffffffffffffffffffffffffffff167f8be0079c531659141344cd1fd0a4f28419497f9722a3daafe3b4186f6b6457e060405160405180910390a36020604051908101604052806000815250600890805190602001906200019b929190620002c9565b5062000378565b63ffffffff7c010000000000000000000000000000000000000000000000000000000002817bffffffffffffffffffffffffffffffffffffffffffffffffffffffff1916141515156200025d576040517f08c379a000000000000000000000000000000000000000000000000000000000815260040180806020018281038252601c8152602001807f4552433136353a20696e76616c696420696e746572666163652069640000000081525060200191505060405180910390fd5b6001600080837bffffffffffffffffffffffffffffffffffffffffffffffffffffffff19167bffffffffffffffffffffffffffffffffffffffffffffffffffffffff1916815260200190815260200160002060006101000a81548160ff02191690831515021790555050565b828054600181600116156101000203166002900490600052602060002090601f016020900481019282601f106200030c57805160ff19168380011785556200033d565b828001600101855582156200033d579182015b828111156200033c5782518255916020019190600101906200031f565b5b5090506200034c919062000350565b5090565b6200037591905b808211156200037157600081600090555060010162000357565b5090565b90565b6128ca80620003886000396000f3fe60806040526004361061010c576000357c01000000000000000000000000000000000000000000000000000000009004806301ffc9a714610111578063070f551e14610183578063081812fc146101d2578063095ea7b31461024d5780631d56ed92146102a857806323b872dd1461031857806342842e0e146103935780636352211e1461040e57806370a0823114610489578063715018a6146104ee5780638da5cb5b146105055780638f32d59b1461055c57806394e8d2841461058b578063a22cb465146105b6578063a8e5862d14610613578063b88d4fde1461063e578063c36b567814610750578063e985e9c514610867578063f2fde38b146108f0578063ffcce32814610941575b600080fd5b34801561011d57600080fd5b506101696004803603602081101561013457600080fd5b8101908080357bffffffffffffffffffffffffffffffffffffffffffffffffffffffff19169060200190929190505050610a19565b604051808215151515815260200191505060405180910390f35b34801561018f57600080fd5b506101bc600480360360208110156101a657600080fd5b8101908080359060200190929190505050610a80565b6040518082815260200191505060405180910390f35b3480156101de57600080fd5b5061020b600480360360208110156101f557600080fd5b8101908080359060200190929190505050610aa0565b604051808273ffffffffffffffffffffffffffffffffffffffff1673ffffffffffffffffffffffffffffffffffffffff16815260200191505060405180910390f35b34801561025957600080fd5b506102a66004803603604081101561027057600080fd5b81019080803573ffffffffffffffffffffffffffffffffffffffff16906020019092919080359060200190929190505050610b80565b005b3480156102b457600080fd5b50610302600480360360808110156102cb57600080fd5b810190808035906020019092919080359060200190929190803560ff16906020019092919080359060200190929190505050610de3565b6040518082815260200191505060405180910390f35b34801561032457600080fd5b506103916004803603606081101561033b57600080fd5b81019080803573ffffffffffffffffffffffffffffffffffffffff169060200190929190803573ffffffffffffffffffffffffffffffffffffffff16906020019092919080359060200190929190505050610ecd565b005b34801561039f57600080fd5b5061040c600480360360608110156103b657600080fd5b81019080803573ffffffffffffffffffffffffffffffffffffffff169060200190929190803573ffffffffffffffffffffffffffffffffffffffff16906020019092919080359060200190929190505050610f81565b005b34801561041a57600080fd5b506104476004803603602081101561043157600080fd5b8101908080359060200190929190505050610fa2565b604051808273ffffffffffffffffffffffffffffffffffffffff1673ffffffffffffffffffffffffffffffffffffffff16815260200191505060405180910390f35b34801561049557600080fd5b506104d8600480360360208110156104ac57600080fd5b81019080803573ffffffffffffffffffffffffffffffffffffffff1690602001909291905050506110af565b6040518082815260200191505060405180910390f35b3480156104fa57600080fd5b506105036111c9565b005b34801561051157600080fd5b5061051a611306565b604051808273ffffffffffffffffffffffffffffffffffffffff1673ffffffffffffffffffffffffffffffffffffffff16815260200191505060405180910390f35b34801561056857600080fd5b50610571611330565b604051808215151515815260200191505060405180910390f35b34801561059757600080fd5b506105a0611388565b6040518082815260200191505060405180910390f35b3480156105c257600080fd5b50610611600480360360408110156105d957600080fd5b81019080803573ffffffffffffffffffffffffffffffffffffffff16906020019092919080351515906020019092919050505061138e565b005b34801561061f57600080fd5b50610628611533565b6040518082815260200191505060405180910390f35b34801561064a57600080fd5b5061074e6004803603608081101561066157600080fd5b81019080803573ffffffffffffffffffffffffffffffffffffffff169060200190929190803573ffffffffffffffffffffffffffffffffffffffff16906020019092919080359060200190929190803590602001906401000000008111156106c857600080fd5b8201836020820111156106da57600080fd5b803590602001918460018302840111640100000000831117156106fc57600080fd5b91908080601f016020809104026020016040519081016040528093929190818152602001838380828437600081840152601f19601f82011690508083019250505050505050919291929050505061153d565b005b34801561075c57600080fd5b50610851600480360360a081101561077357600080fd5b81019080803573ffffffffffffffffffffffffffffffffffffffff169060200190929190803590602001909291908035906020019092919080359060200190929190803590602001906401000000008111156107ce57600080fd5b8201836020820111156107e057600080fd5b8035906020019184602083028401116401000000008311171561080257600080fd5b919080806020026020016040519081016040528093929190818152602001838360200280828437600081840152601f19601f8201169050808301925050505050505091929192905050506115f4565b6040518082815260200191505060405180910390f35b34801561087357600080fd5b506108d66004803603604081101561088a57600080fd5b81019080803573ffffffffffffffffffffffffffffffffffffffff169060200190929190803573ffffffffffffffffffffffffffffffffffffffff169060200190929190505050611792565b604051808215151515815260200191505060405180910390f35b3480156108fc57600080fd5b5061093f6004803603602081101561091357600080fd5b81019080803573ffffffffffffffffffffffffffffffffffffffff169060200190929190505050611826565b005b34801561094d57600080fd5b5061097a6004803603602081101561096457600080fd5b81019080803590602001909291905050506118ae565b60405180868152602001858152602001848152602001806020018373ffffffffffffffffffffffffffffffffffffffff1673ffffffffffffffffffffffffffffffffffffffff168152602001828103825284818151815260200191508051906020019060200280838360005b83811015610a015780820151818401526020810190506109e6565b50505050905001965050505050505060405180910390f35b6000806000837bffffffffffffffffffffffffffffffffffffffffffffffffffffffff19167bffffffffffffffffffffffffffffffffffffffffffffffffffffffff1916815260200190815260200160002060009054906101000a900460ff169050919050565b600060096000838152602001908152602001600020600201549050919050565b6000610aab82611bb2565b1515610b45576040517f08c379a000000000000000000000000000000000000000000000000000000000815260040180806020018281038252602c8152602001807f4552433732313a20617070726f76656420717565727920666f72206e6f6e657881526020017f697374656e7420746f6b656e000000000000000000000000000000000000000081525060400191505060405180910390fd5b6002600083815260200190815260200160002060009054906101000a900473ffffffffffffffffffffffffffffffffffffffff169050919050565b6000610b8b82610fa2565b90508073ffffffffffffffffffffffffffffffffffffffff168373ffffffffffffffffffffffffffffffffffffffff1614151515610c57576040517f08c379a00000000000000000000000000000000000000000000000000000000081526004018080602001828103825260218152602001807f4552433732313a20617070726f76616c20746f2063757272656e74206f776e6581526020017f720000000000000000000000000000000000000000000000000000000000000081525060400191505060405180910390fd5b8073ffffffffffffffffffffffffffffffffffffffff163373ffffffffffffffffffffffffffffffffffffffff161480610c975750610c968133611792565b5b1515610d31576040517f08c379a00000000000000000000000000000000000000000000000000000000081526004018080602001828103825260388152602001807f4552433732313a20617070726f76652063616c6c6572206973206e6f74206f7781526020017f6e6572206e6f7220617070726f76656420666f7220616c6c000000000000000081525060400191505060405180910390fd5b826002600084815260200190815260200160002060006101000a81548173ffffffffffffffffffffffffffffffffffffffff021916908373ffffffffffffffffffffffffffffffffffffffff160217905550818373ffffffffffffffffffffffffffffffffffffffff168273ffffffffffffffffffffffffffffffffffffffff167f8c5be1e5ebec7d5bd14f71427d1e84f3dd0314c0f7b2291e5b200ac8c7c3b92560405160405180910390a4505050565b60008060009050600083905060008090505b60008360ff161415610ebf57600654821115610e145760019250610eb2565b87600960008481526020019081526020016000206001015411158015610e50575086600960008481526020019081526020016000206000015410155b8015610ea457506001600960008481526020019081526020016000206003018760ff16815481101515610e7f57fe5b90600052602060002090602091828204019190069054906101000a900460ff1660ff16145b15610eb157819050600192505b5b8180600101925050610df5565b809350505050949350505050565b610ed73382611c24565b1515610f71576040517f08c379a00000000000000000000000000000000000000000000000000000000081526004018080602001828103825260318152602001807f4552433732313a207472616e736665722063616c6c6572206973206e6f74206f81526020017f776e6572206e6f7220617070726f76656400000000000000000000000000000081525060400191505060405180910390fd5b610f7c838383611d5d565b505050565b610f9d838383602060405190810160405280600081525061153d565b505050565b6000806001600084815260200190815260200160002060009054906101000a900473ffffffffffffffffffffffffffffffffffffffff169050600073ffffffffffffffffffffffffffffffffffffffff168173ffffffffffffffffffffffffffffffffffffffff16141515156110a6576040517f08c379a00000000000000000000000000000000000000000000000000000000081526004018080602001828103825260298152602001807f4552433732313a206f776e657220717565727920666f72206e6f6e657869737481526020017f656e7420746f6b656e000000000000000000000000000000000000000000000081525060400191505060405180910390fd5b80915050919050565b60008073ffffffffffffffffffffffffffffffffffffffff168273ffffffffffffffffffffffffffffffffffffffff161415151561117b576040517f08c379a000000000000000000000000000000000000000000000000000000000815260040180806020018281038252602a8152602001807f4552433732313a2062616c616e636520717565727920666f7220746865207a6581526020017f726f20616464726573730000000000000000000000000000000000000000000081525060400191505060405180910390fd5b6111c2600360008473ffffffffffffffffffffffffffffffffffffffff1673ffffffffffffffffffffffffffffffffffffffff168152602001908152602001600020612042565b9050919050565b6111d1611330565b1515611245576040517f08c379a00000000000000000000000000000000000000000000000000000000081526004018080602001828103825260208152602001807f4f776e61626c653a2063616c6c6572206973206e6f7420746865206f776e657281525060200191505060405180910390fd5b600073ffffffffffffffffffffffffffffffffffffffff16600560009054906101000a900473ffffffffffffffffffffffffffffffffffffffff1673ffffffffffffffffffffffffffffffffffffffff167f8be0079c531659141344cd1fd0a4f28419497f9722a3daafe3b4186f6b6457e060405160405180910390a36000600560006101000a81548173ffffffffffffffffffffffffffffffffffffffff021916908373ffffffffffffffffffffffffffffffffffffffff160217905550565b6000600560009054906101000a900473ffffffffffffffffffffffffffffffffffffffff16905090565b6000600560009054906101000a900473ffffffffffffffffffffffffffffffffffffffff1673ffffffffffffffffffffffffffffffffffffffff163373ffffffffffffffffffffffffffffffffffffffff1614905090565b60065481565b3373ffffffffffffffffffffffffffffffffffffffff168273ffffffffffffffffffffffffffffffffffffffff1614151515611432576040517f08c379a00000000000000000000000000000000000000000000000000000000081526004018080602001828103825260198152602001807f4552433732313a20617070726f766520746f2063616c6c65720000000000000081525060200191505060405180910390fd5b80600460003373ffffffffffffffffffffffffffffffffffffffff1673ffffffffffffffffffffffffffffffffffffffff16815260200190815260200160002060008473ffffffffffffffffffffffffffffffffffffffff1673ffffffffffffffffffffffffffffffffffffffff16815260200190815260200160002060006101000a81548160ff0219169083151502179055508173ffffffffffffffffffffffffffffffffffffffff163373ffffffffffffffffffffffffffffffffffffffff167f17307eab39ab6107e8899845ad3d59bd9653f200f220920489ca2b5937696c3183604051808215151515815260200191505060405180910390a35050565b6000600654905090565b611548848484610ecd565b61155484848484612050565b15156115ee576040517f08c379a00000000000000000000000000000000000000000000000000000000081526004018080602001828103825260328152602001807f4552433732313a207472616e7366657220746f206e6f6e20455243373231526581526020017f63656976657220696d706c656d656e746572000000000000000000000000000081525060400191505060405180910390fd5b50505050565b60006115fe611330565b1515611672576040517f08c379a00000000000000000000000000000000000000000000000000000000081526004018080602001828103825260208152602001807f4f776e61626c653a2063616c6c6572206973206e6f7420746865206f776e657281525060200191505060405180910390fd5b600061167c612273565b90506116888782612289565b856009600083815260200190815260200160002060000181905550846009600083815260200190815260200160002060010181905550836009600083815260200190815260200160002060020181905550826009600083815260200190815260200160002060030190805190602001906117039291906127c7565b50866009600083815260200190815260200160002060040160006101000a81548173ffffffffffffffffffffffffffffffffffffffff021916908373ffffffffffffffffffffffffffffffffffffffff160217905550600a8190806001815401808255809150509060018203906000526020600020016000909192909190915055508091505095945050505050565b6000600460008473ffffffffffffffffffffffffffffffffffffffff1673ffffffffffffffffffffffffffffffffffffffff16815260200190815260200160002060008373ffffffffffffffffffffffffffffffffffffffff1673ffffffffffffffffffffffffffffffffffffffff16815260200190815260200160002060009054906101000a900460ff16905092915050565b61182e611330565b15156118a2576040517f08c379a00000000000000000000000000000000000000000000000000000000081526004018080602001828103825260208152602001807f4f776e61626c653a2063616c6c6572206973206e6f7420746865206f776e657281525060200191505060405180910390fd5b6118ab816124a5565b50565b600080600060606000808614156118c55760065495505b600073ffffffffffffffffffffffffffffffffffffffff166009600088815260200190815260200160002060040160009054906101000a900473ffffffffffffffffffffffffffffffffffffffff1673ffffffffffffffffffffffffffffffffffffffff16141515156119a0576040517f08c379a00000000000000000000000000000000000000000000000000000000081526004018080602001828103825260128152602001807f44726f6e206e6f207265676973747261646f000000000000000000000000000081525060200191505060405180910390fd5b6009600087815260200190815260200160002060020154600960008881526020019081526020016000206001015460096000898152602001908152602001600020600001547f360b34c8c625d15889af1459e77b2c16d6755883cb0b32d66b021d7f88b50af7600960008b815260200190815260200160002060030160405180806020018281038252838181548152602001915080548015611a8757602002820191906000526020600020906000905b82829054906101000a900460ff1660ff1681526020019060010190602082600001049283019260010382029150808411611a505790505b50509250505060405180910390a4600960008781526020019081526020016000206000015460096000888152602001908152602001600020600101546009600089815260200190815260200160002060020154600960008a8152602001908152602001600020600301600960008b815260200190815260200160002060040160009054906101000a900473ffffffffffffffffffffffffffffffffffffffff1681805480602002602001604051908101604052809291908181526020018280548015611b9857602002820191906000526020600020906000905b82829054906101000a900460ff1660ff1681526020019060010190602082600001049283019260010382029150808411611b615790505b505050505091509450945094509450945091939590929450565b6000806001600084815260200190815260200160002060009054906101000a900473ffffffffffffffffffffffffffffffffffffffff169050600073ffffffffffffffffffffffffffffffffffffffff168173ffffffffffffffffffffffffffffffffffffffff161415915050919050565b6000611c2f82611bb2565b1515611cc9576040517f08c379a000000000000000000000000000000000000000000000000000000000815260040180806020018281038252602c8152602001807f4552433732313a206f70657261746f7220717565727920666f72206e6f6e657881526020017f697374656e7420746f6b656e000000000000000000000000000000000000000081525060400191505060405180910390fd5b6000611cd483610fa2565b90508073ffffffffffffffffffffffffffffffffffffffff168473ffffffffffffffffffffffffffffffffffffffff161480611d4357508373ffffffffffffffffffffffffffffffffffffffff16611d2b84610aa0565b73ffffffffffffffffffffffffffffffffffffffff16145b80611d545750611d538185611792565b5b91505092915050565b8273ffffffffffffffffffffffffffffffffffffffff16611d7d82610fa2565b73ffffffffffffffffffffffffffffffffffffffff16141515611e2e576040517f08c379a00000000000000000000000000000000000000000000000000000000081526004018080602001828103825260298152602001807f4552433732313a207472616e73666572206f6620746f6b656e2074686174206981526020017f73206e6f74206f776e000000000000000000000000000000000000000000000081525060400191505060405180910390fd5b600073ffffffffffffffffffffffffffffffffffffffff168273ffffffffffffffffffffffffffffffffffffffff1614151515611ef9576040517f08c379a00000000000000000000000000000000000000000000000000000000081526004018080602001828103825260248152602001807f4552433732313a207472616e7366657220746f20746865207a65726f2061646481526020017f726573730000000000000000000000000000000000000000000000000000000081525060400191505060405180910390fd5b611f0281612630565b611f49600360008573ffffffffffffffffffffffffffffffffffffffff1673ffffffffffffffffffffffffffffffffffffffff1681526020019081526020016000206126f0565b611f90600360008473ffffffffffffffffffffffffffffffffffffffff1673ffffffffffffffffffffffffffffffffffffffff168152602001908152602001600020612713565b816001600083815260200190815260200160002060006101000a81548173ffffffffffffffffffffffffffffffffffffffff021916908373ffffffffffffffffffffffffffffffffffffffff160217905550808273ffffffffffffffffffffffffffffffffffffffff168473ffffffffffffffffffffffffffffffffffffffff167fddf252ad1be2c89b69c2b068fc378daa952ba7f163c4a11628f55a4df523b3ef60405160405180910390a4505050565b600081600001549050919050565b60006120718473ffffffffffffffffffffffffffffffffffffffff16612729565b1515612080576001905061226b565b60008473ffffffffffffffffffffffffffffffffffffffff1663150b7a02338887876040518563ffffffff167c0100000000000000000000000000000000000000000000000000000000028152600401808573ffffffffffffffffffffffffffffffffffffffff1673ffffffffffffffffffffffffffffffffffffffff1681526020018473ffffffffffffffffffffffffffffffffffffffff1673ffffffffffffffffffffffffffffffffffffffff16815260200183815260200180602001828103825283818151815260200191508051906020019080838360005b8381101561217757808201518184015260208101905061215c565b50505050905090810190601f1680156121a45780820380516001836020036101000a031916815260200191505b5095505050505050602060405180830381600087803b1580156121c657600080fd5b505af11580156121da573d6000803e3d6000fd5b505050506040513d60208110156121f057600080fd5b8101908080519060200190929190505050905063150b7a027c0100000000000000000000000000000000000000000000000000000000027bffffffffffffffffffffffffffffffffffffffffffffffffffffffff1916817bffffffffffffffffffffffffffffffffffffffffffffffffffffffff1916149150505b949350505050565b6000600160065401600681905550600654905090565b600073ffffffffffffffffffffffffffffffffffffffff168273ffffffffffffffffffffffffffffffffffffffff161415151561232e576040517f08c379a00000000000000000000000000000000000000000000000000000000081526004018080602001828103825260208152602001807f4552433732313a206d696e7420746f20746865207a65726f206164647265737381525060200191505060405180910390fd5b61233781611bb2565b1515156123ac576040517f08c379a000000000000000000000000000000000000000000000000000000000815260040180806020018281038252601c8152602001807f4552433732313a20746f6b656e20616c7265616479206d696e7465640000000081525060200191505060405180910390fd5b816001600083815260200190815260200160002060006101000a81548173ffffffffffffffffffffffffffffffffffffffff021916908373ffffffffffffffffffffffffffffffffffffffff160217905550612445600360008473ffffffffffffffffffffffffffffffffffffffff1673ffffffffffffffffffffffffffffffffffffffff168152602001908152602001600020612713565b808273ffffffffffffffffffffffffffffffffffffffff16600073ffffffffffffffffffffffffffffffffffffffff167fddf252ad1be2c89b69c2b068fc378daa952ba7f163c4a11628f55a4df523b3ef60405160405180910390a45050565b600073ffffffffffffffffffffffffffffffffffffffff168173ffffffffffffffffffffffffffffffffffffffff1614151515612570576040517f08c379a00000000000000000000000000000000000000000000000000000000081526004018080602001828103825260268152602001807f4f776e61626c653a206e6577206f776e657220697320746865207a65726f206181526020017f646472657373000000000000000000000000000000000000000000000000000081525060400191505060405180910390fd5b8073ffffffffffffffffffffffffffffffffffffffff16600560009054906101000a900473ffffffffffffffffffffffffffffffffffffffff1673ffffffffffffffffffffffffffffffffffffffff167f8be0079c531659141344cd1fd0a4f28419497f9722a3daafe3b4186f6b6457e060405160405180910390a380600560006101000a81548173ffffffffffffffffffffffffffffffffffffffff021916908373ffffffffffffffffffffffffffffffffffffffff16021790555050565b600073ffffffffffffffffffffffffffffffffffffffff166002600083815260200190815260200160002060009054906101000a900473ffffffffffffffffffffffffffffffffffffffff1673ffffffffffffffffffffffffffffffffffffffff161415156126ed5760006002600083815260200190815260200160002060006101000a81548173ffffffffffffffffffffffffffffffffffffffff021916908373ffffffffffffffffffffffffffffffffffffffff1602179055505b50565b6127086001826000015461273c90919063ffffffff16565b816000018190555050565b6001816000016000828254019250508190555050565b600080823b905060008111915050919050565b60008282111515156127b6576040517f08c379a000000000000000000000000000000000000000000000000000000000815260040180806020018281038252601e8152602001807f536166654d6174683a207375627472616374696f6e206f766572666c6f77000081525060200191505060405180910390fd5b600082840390508091505092915050565b82805482825590600052602060002090601f0160209004810192821561285d5791602002820160005b8382111561282e57835183826101000a81548160ff021916908360ff16021790555092602001926001016020816000010492830192600103026127f0565b801561285b5782816101000a81549060ff021916905560010160208160000104928301926001030261282e565b505b50905061286a919061286e565b5090565b61289b91905b8082111561289757600081816101000a81549060ff021916905550600101612874565b5090565b9056fea165627a7a72305820dc7370a46f34847dd4797bf5979ccde153978ac4c283e3f4db0bf4c0bc51eed4002960806040526020604051908101604052806000815250600890805190602001906200002c929190620002c9565b503480156200003a57600080fd5b50620000786301ffc9a77c010000000000000000000000000000000000000000000000000000000002620001a2640100000000026401000000009004565b620000b56380ac58cd7c010000000000000000000000000000000000000000000000000000000002620001a2640100000000026401000000009004565b33600560006101000a81548173ffffffffffffffffffffffffffffffffffffffff021916908373ffffffffffffffffffffffffffffffffffffffff160217905550600560009054906101000a900473ffffffffffffffffffffffffffffffffffffffff1673ffffffffffffffffffffffffffffffffffffffff16600073ffffffffffffffffffffffffffffffffffffffff167f8be0079c531659141344cd1fd0a4f28419497f9722a3daafe3b4186f6b6457e060405160405180910390a36020604051908101604052806000815250600890805190602001906200019b929190620002c9565b5062000378565b63ffffffff7c010000000000000000000000000000000000000000000000000000000002817bffffffffffffffffffffffffffffffffffffffffffffffffffffffff1916141515156200025d576040517f08c379a000000000000000000000000000000000000000000000000000000000815260040180806020018281038252601c8152602001807f4552433136353a20696e76616c696420696e746572666163652069640000000081525060200191505060405180910390fd5b6001600080837bffffffffffffffffffffffffffffffffffffffffffffffffffffffff19167bffffffffffffffffffffffffffffffffffffffffffffffffffffffff1916815260200190815260200160002060006101000a81548160ff02191690831515021790555050565b828054600181600116156101000203166002900490600052602060002090601f016020900481019282601f106200030c57805160ff19168380011785556200033d565b828001600101855582156200033d579182015b828111156200033c5782518255916020019190600101906200031f565b5b5090506200034c919062000350565b5090565b6200037591905b808211156200037157600081600090555060010162000357565b5090565b90565b6124d580620003886000396000f3fe608060405260043610610101576000357c01000000000000000000000000000000000000000000000000000000009004806301ffc9a714610106578063081812fc14610178578063095ea7b3146101f35780631db29a201461024e57806323b872dd146102e457806342842e0e1461035f5780636352211e146103da57806370a0823114610455578063715018a6146104ba5780638da5cb5b146104d15780638f32d59b1461052857806394e8d28414610557578063a1f45dd614610582578063a22cb465146105fd578063a8e5862d1461065a578063b88d4fde14610685578063d6b9605014610797578063e985e9c51461081d578063f2fde38b146108a6575b600080fd5b34801561011257600080fd5b5061015e6004803603602081101561012957600080fd5b8101908080357bffffffffffffffffffffffffffffffffffffffffffffffffffffffff191690602001909291905050506108f7565b604051808215151515815260200191505060405180910390f35b34801561018457600080fd5b506101b16004803603602081101561019b57600080fd5b810190808035906020019092919050505061095e565b604051808273ffffffffffffffffffffffffffffffffffffffff1673ffffffffffffffffffffffffffffffffffffffff16815260200191505060405180910390f35b3480156101ff57600080fd5b5061024c6004803603604081101561021657600080fd5b81019080803573ffffffffffffffffffffffffffffffffffffffff16906020019092919080359060200190929190505050610a3e565b005b34801561025a57600080fd5b506102876004803603602081101561027157600080fd5b8101908080359060200190929190505050610ca1565b604051808581526020018481526020018360ff1660ff1681526020018273ffffffffffffffffffffffffffffffffffffffff1673ffffffffffffffffffffffffffffffffffffffff16815260200194505050505060405180910390f35b3480156102f057600080fd5b5061035d6004803603606081101561030757600080fd5b81019080803573ffffffffffffffffffffffffffffffffffffffff169060200190929190803573ffffffffffffffffffffffffffffffffffffffff16906020019092919080359060200190929190505050610eb7565b005b34801561036b57600080fd5b506103d86004803603606081101561038257600080fd5b81019080803573ffffffffffffffffffffffffffffffffffffffff169060200190929190803573ffffffffffffffffffffffffffffffffffffffff16906020019092919080359060200190929190505050610f6b565b005b3480156103e657600080fd5b50610413600480360360208110156103fd57600080fd5b8101908080359060200190929190505050610f8c565b604051808273ffffffffffffffffffffffffffffffffffffffff1673ffffffffffffffffffffffffffffffffffffffff16815260200191505060405180910390f35b34801561046157600080fd5b506104a46004803603602081101561047857600080fd5b81019080803573ffffffffffffffffffffffffffffffffffffffff169060200190929190505050611099565b6040518082815260200191505060405180910390f35b3480156104c657600080fd5b506104cf6111b3565b005b3480156104dd57600080fd5b506104e66112f0565b604051808273ffffffffffffffffffffffffffffffffffffffff1673ffffffffffffffffffffffffffffffffffffffff16815260200191505060405180910390f35b34801561053457600080fd5b5061053d61131a565b604051808215151515815260200191505060405180910390f35b34801561056357600080fd5b5061056c611372565b6040518082815260200191505060405180910390f35b34801561058e57600080fd5b506105bb600480360360208110156105a557600080fd5b8101908080359060200190929190505050611378565b604051808273ffffffffffffffffffffffffffffffffffffffff1673ffffffffffffffffffffffffffffffffffffffff16815260200191505060405180910390f35b34801561060957600080fd5b506106586004803603604081101561062057600080fd5b81019080803573ffffffffffffffffffffffffffffffffffffffff1690602001909291908035151590602001909291905050506113b8565b005b34801561066657600080fd5b5061066f61155d565b6040518082815260200191505060405180910390f35b34801561069157600080fd5b50610795600480360360808110156106a857600080fd5b81019080803573ffffffffffffffffffffffffffffffffffffffff169060200190929190803573ffffffffffffffffffffffffffffffffffffffff169060200190929190803590602001909291908035906020019064010000000081111561070f57600080fd5b82018360208201111561072157600080fd5b8035906020019184600183028401116401000000008311171561074357600080fd5b91908080601f016020809104026020016040519081016040528093929190818152602001838380828437600081840152601f19601f820116905080830192505050505050509192919290505050611567565b005b3480156107a357600080fd5b50610807600480360360808110156107ba57600080fd5b81019080803573ffffffffffffffffffffffffffffffffffffffff1690602001909291908035906020019092919080359060200190929190803560ff16906020019092919050505061161e565b6040518082815260200191505060405180910390f35b34801561082957600080fd5b5061088c6004803603604081101561084057600080fd5b81019080803573ffffffffffffffffffffffffffffffffffffffff169060200190929190803573ffffffffffffffffffffffffffffffffffffffff169060200190929190505050611778565b604051808215151515815260200191505060405180910390f35b3480156108b257600080fd5b506108f5600480360360208110156108c957600080fd5b81019080803573ffffffffffffffffffffffffffffffffffffffff16906020019092919050505061180c565b005b6000806000837bffffffffffffffffffffffffffffffffffffffffffffffffffffffff19167bffffffffffffffffffffffffffffffffffffffffffffffffffffffff1916815260200190815260200160002060009054906101000a900460ff169050919050565b600061096982611894565b1515610a03576040517f08c379a000000000000000000000000000000000000000000000000000000000815260040180806020018281038252602c8152602001807f4552433732313a20617070726f76656420717565727920666f72206e6f6e657881526020017f697374656e7420746f6b656e000000000000000000000000000000000000000081525060400191505060405180910390fd5b6002600083815260200190815260200160002060009054906101000a900473ffffffffffffffffffffffffffffffffffffffff169050919050565b6000610a4982610f8c565b90508073ffffffffffffffffffffffffffffffffffffffff168373ffffffffffffffffffffffffffffffffffffffff1614151515610b15576040517f08c379a00000000000000000000000000000000000000000000000000000000081526004018080602001828103825260218152602001807f4552433732313a20617070726f76616c20746f2063757272656e74206f776e6581526020017f720000000000000000000000000000000000000000000000000000000000000081525060400191505060405180910390fd5b8073ffffffffffffffffffffffffffffffffffffffff163373ffffffffffffffffffffffffffffffffffffffff161480610b555750610b548133611778565b5b1515610bef576040517f08c379a00000000000000000000000000000000000000000000000000000000081526004018080602001828103825260388152602001807f4552433732313a20617070726f76652063616c6c6572206973206e6f74206f7781526020017f6e6572206e6f7220617070726f76656420666f7220616c6c000000000000000081525060400191505060405180910390fd5b826002600084815260200190815260200160002060006101000a81548173ffffffffffffffffffffffffffffffffffffffff021916908373ffffffffffffffffffffffffffffffffffffffff160217905550818373ffffffffffffffffffffffffffffffffffffffff168273ffffffffffffffffffffffffffffffffffffffff167f8c5be1e5ebec7d5bd14f71427d1e84f3dd0314c0f7b2291e5b200ac8c7c3b92560405160405180910390a4505050565b6000806000806000851415610cb65760065494505b600073ffffffffffffffffffffffffffffffffffffffff16600c600087815260200190815260200160002060020160019054906101000a900473ffffffffffffffffffffffffffffffffffffffff1673ffffffffffffffffffffffffffffffffffffffff1614151515610d91576040517f08c379a00000000000000000000000000000000000000000000000000000000081526004018080602001828103825260158152602001807f50617263656c61206e6f207265676973747261646f000000000000000000000081525060200191505060405180910390fd5b600c600086815260200190815260200160002060010154600c6000878152602001908152602001600020600001547ff57b8efc5ec2d1b676f1c8572e947a7ae5b43a900cf5d5a5d9272d8795a93ba8600c600089815260200190815260200160002060020160009054906101000a900460ff16604051808260ff1660ff16815260200191505060405180910390a3600c600086815260200190815260200160002060000154600c600087815260200190815260200160002060010154600c600088815260200190815260200160002060020160009054906101000a900460ff16600c600089815260200190815260200160002060020160019054906101000a900473ffffffffffffffffffffffffffffffffffffffff1693509350935093509193509193565b610ec13382611906565b1515610f5b576040517f08c379a00000000000000000000000000000000000000000000000000000000081526004018080602001828103825260318152602001807f4552433732313a207472616e736665722063616c6c6572206973206e6f74206f81526020017f776e6572206e6f7220617070726f76656400000000000000000000000000000081525060400191505060405180910390fd5b610f66838383611a3f565b505050565b610f878383836020604051908101604052806000815250611567565b505050565b6000806001600084815260200190815260200160002060009054906101000a900473ffffffffffffffffffffffffffffffffffffffff169050600073ffffffffffffffffffffffffffffffffffffffff168173ffffffffffffffffffffffffffffffffffffffff1614151515611090576040517f08c379a00000000000000000000000000000000000000000000000000000000081526004018080602001828103825260298152602001807f4552433732313a206f776e657220717565727920666f72206e6f6e657869737481526020017f656e7420746f6b656e000000000000000000000000000000000000000000000081525060400191505060405180910390fd5b80915050919050565b60008073ffffffffffffffffffffffffffffffffffffffff168273ffffffffffffffffffffffffffffffffffffffff1614151515611165576040517f08c379a000000000000000000000000000000000000000000000000000000000815260040180806020018281038252602a8152602001807f4552433732313a2062616c616e636520717565727920666f7220746865207a6581526020017f726f20616464726573730000000000000000000000000000000000000000000081525060400191505060405180910390fd5b6111ac600360008473ffffffffffffffffffffffffffffffffffffffff1673ffffffffffffffffffffffffffffffffffffffff168152602001908152602001600020611d24565b9050919050565b6111bb61131a565b151561122f576040517f08c379a00000000000000000000000000000000000000000000000000000000081526004018080602001828103825260208152602001807f4f776e61626c653a2063616c6c6572206973206e6f7420746865206f776e657281525060200191505060405180910390fd5b600073ffffffffffffffffffffffffffffffffffffffff16600560009054906101000a900473ffffffffffffffffffffffffffffffffffffffff1673ffffffffffffffffffffffffffffffffffffffff167f8be0079c531659141344cd1fd0a4f28419497f9722a3daafe3b4186f6b6457e060405160405180910390a36000600560006101000a81548173ffffffffffffffffffffffffffffffffffffffff021916908373ffffffffffffffffffffffffffffffffffffffff160217905550565b6000600560009054906101000a900473ffffffffffffffffffffffffffffffffffffffff16905090565b6000600560009054906101000a900473ffffffffffffffffffffffffffffffffffffffff1673ffffffffffffffffffffffffffffffffffffffff163373ffffffffffffffffffffffffffffffffffffffff1614905090565b60065481565b6000600c600083815260200190815260200160002060020160019054906101000a900473ffffffffffffffffffffffffffffffffffffffff169050919050565b3373ffffffffffffffffffffffffffffffffffffffff168273ffffffffffffffffffffffffffffffffffffffff161415151561145c576040517f08c379a00000000000000000000000000000000000000000000000000000000081526004018080602001828103825260198152602001807f4552433732313a20617070726f766520746f2063616c6c65720000000000000081525060200191505060405180910390fd5b80600460003373ffffffffffffffffffffffffffffffffffffffff1673ffffffffffffffffffffffffffffffffffffffff16815260200190815260200160002060008473ffffffffffffffffffffffffffffffffffffffff1673ffffffffffffffffffffffffffffffffffffffff16815260200190815260200160002060006101000a81548160ff0219169083151502179055508173ffffffffffffffffffffffffffffffffffffffff163373ffffffffffffffffffffffffffffffffffffffff167f17307eab39ab6107e8899845ad3d59bd9653f200f220920489ca2b5937696c3183604051808215151515815260200191505060405180910390a35050565b6000600654905090565b611572848484610eb7565b61157e84848484611d32565b1515611618576040517f08c379a00000000000000000000000000000000000000000000000000000000081526004018080602001828103825260328152602001807f4552433732313a207472616e7366657220746f206e6f6e20455243373231526581526020017f63656976657220696d706c656d656e746572000000000000000000000000000081525060400191505060405180910390fd5b50505050565b600061162861131a565b151561169c576040517f08c379a00000000000000000000000000000000000000000000000000000000081526004018080602001828103825260208152602001807f4f776e61626c653a2063616c6c6572206973206e6f7420746865206f776e657281525060200191505060405180910390fd5b60006116a6611f55565b90506116b28682611f6b565b84600c60008381526020019081526020016000206000018190555083600c60008381526020019081526020016000206001018190555082600c600083815260200190815260200160002060020160006101000a81548160ff021916908360ff16021790555085600c600083815260200190815260200160002060020160016101000a81548173ffffffffffffffffffffffffffffffffffffffff021916908373ffffffffffffffffffffffffffffffffffffffff16021790555080915050949350505050565b6000600460008473ffffffffffffffffffffffffffffffffffffffff1673ffffffffffffffffffffffffffffffffffffffff16815260200190815260200160002060008373ffffffffffffffffffffffffffffffffffffffff1673ffffffffffffffffffffffffffffffffffffffff16815260200190815260200160002060009054906101000a900460ff16905092915050565b61181461131a565b1515611888576040517f08c379a00000000000000000000000000000000000000000000000000000000081526004018080602001828103825260208152602001807f4f776e61626c653a2063616c6c6572206973206e6f7420746865206f776e657281525060200191505060405180910390fd5b61189181612187565b50565b6000806001600084815260200190815260200160002060009054906101000a900473ffffffffffffffffffffffffffffffffffffffff169050600073ffffffffffffffffffffffffffffffffffffffff168173ffffffffffffffffffffffffffffffffffffffff161415915050919050565b600061191182611894565b15156119ab576040517f08c379a000000000000000000000000000000000000000000000000000000000815260040180806020018281038252602c8152602001807f4552433732313a206f70657261746f7220717565727920666f72206e6f6e657881526020017f697374656e7420746f6b656e000000000000000000000000000000000000000081525060400191505060405180910390fd5b60006119b683610f8c565b90508073ffffffffffffffffffffffffffffffffffffffff168473ffffffffffffffffffffffffffffffffffffffff161480611a2557508373ffffffffffffffffffffffffffffffffffffffff16611a0d8461095e565b73ffffffffffffffffffffffffffffffffffffffff16145b80611a365750611a358185611778565b5b91505092915050565b8273ffffffffffffffffffffffffffffffffffffffff16611a5f82610f8c565b73ffffffffffffffffffffffffffffffffffffffff16141515611b10576040517f08c379a00000000000000000000000000000000000000000000000000000000081526004018080602001828103825260298152602001807f4552433732313a207472616e73666572206f6620746f6b656e2074686174206981526020017f73206e6f74206f776e000000000000000000000000000000000000000000000081525060400191505060405180910390fd5b600073ffffffffffffffffffffffffffffffffffffffff168273ffffffffffffffffffffffffffffffffffffffff1614151515611bdb576040517f08c379a00000000000000000000000000000000000000000000000000000000081526004018080602001828103825260248152602001807f4552433732313a207472616e7366657220746f20746865207a65726f2061646481526020017f726573730000000000000000000000000000000000000000000000000000000081525060400191505060405180910390fd5b611be481612312565b611c2b600360008573ffffffffffffffffffffffffffffffffffffffff1673ffffffffffffffffffffffffffffffffffffffff1681526020019081526020016000206123d2565b611c72600360008473ffffffffffffffffffffffffffffffffffffffff1673ffffffffffffffffffffffffffffffffffffffff1681526020019081526020016000206123f5565b816001600083815260200190815260200160002060006101000a81548173ffffffffffffffffffffffffffffffffffffffff021916908373ffffffffffffffffffffffffffffffffffffffff160217905550808273ffffffffffffffffffffffffffffffffffffffff168473ffffffffffffffffffffffffffffffffffffffff167fddf252ad1be2c89b69c2b068fc378daa952ba7f163c4a11628f55a4df523b3ef60405160405180910390a4505050565b600081600001549050919050565b6000611d538473ffffffffffffffffffffffffffffffffffffffff1661240b565b1515611d625760019050611f4d565b60008473ffffffffffffffffffffffffffffffffffffffff1663150b7a02338887876040518563ffffffff167c0100000000000000000000000000000000000000000000000000000000028152600401808573ffffffffffffffffffffffffffffffffffffffff1673ffffffffffffffffffffffffffffffffffffffff1681526020018473ffffffffffffffffffffffffffffffffffffffff1673ffffffffffffffffffffffffffffffffffffffff16815260200183815260200180602001828103825283818151815260200191508051906020019080838360005b83811015611e59578082015181840152602081019050611e3e565b50505050905090810190601f168015611e865780820380516001836020036101000a031916815260200191505b5095505050505050602060405180830381600087803b158015611ea857600080fd5b505af1158015611ebc573d6000803e3d6000fd5b505050506040513d6020811015611ed257600080fd5b8101908080519060200190929190505050905063150b7a027c0100000000000000000000000000000000000000000000000000000000027bffffffffffffffffffffffffffffffffffffffffffffffffffffffff1916817bffffffffffffffffffffffffffffffffffffffffffffffffffffffff1916149150505b949350505050565b6000600160065401600681905550600654905090565b600073ffffffffffffffffffffffffffffffffffffffff168273ffffffffffffffffffffffffffffffffffffffff1614151515612010576040517f08c379a00000000000000000000000000000000000000000000000000000000081526004018080602001828103825260208152602001807f4552433732313a206d696e7420746f20746865207a65726f206164647265737381525060200191505060405180910390fd5b61201981611894565b15151561208e576040517f08c379a000000000000000000000000000000000000000000000000000000000815260040180806020018281038252601c8152602001807f4552433732313a20746f6b656e20616c7265616479206d696e7465640000000081525060200191505060405180910390fd5b816001600083815260200190815260200160002060006101000a81548173ffffffffffffffffffffffffffffffffffffffff021916908373ffffffffffffffffffffffffffffffffffffffff160217905550612127600360008473ffffffffffffffffffffffffffffffffffffffff1673ffffffffffffffffffffffffffffffffffffffff1681526020019081526020016000206123f5565b808273ffffffffffffffffffffffffffffffffffffffff16600073ffffffffffffffffffffffffffffffffffffffff167fddf252ad1be2c89b69c2b068fc378daa952ba7f163c4a11628f55a4df523b3ef60405160405180910390a45050565b600073ffffffffffffffffffffffffffffffffffffffff168173ffffffffffffffffffffffffffffffffffffffff1614151515612252576040517f08c379a00000000000000000000000000000000000000000000000000000000081526004018080602001828103825260268152602001807f4f776e61626c653a206e6577206f776e657220697320746865207a65726f206181526020017f646472657373000000000000000000000000000000000000000000000000000081525060400191505060405180910390fd5b8073ffffffffffffffffffffffffffffffffffffffff16600560009054906101000a900473ffffffffffffffffffffffffffffffffffffffff1673ffffffffffffffffffffffffffffffffffffffff167f8be0079c531659141344cd1fd0a4f28419497f9722a3daafe3b4186f6b6457e060405160405180910390a380600560006101000a81548173ffffffffffffffffffffffffffffffffffffffff021916908373ffffffffffffffffffffffffffffffffffffffff16021790555050565b600073ffffffffffffffffffffffffffffffffffffffff166002600083815260200190815260200160002060009054906101000a900473ffffffffffffffffffffffffffffffffffffffff1673ffffffffffffffffffffffffffffffffffffffff161415156123cf5760006002600083815260200190815260200160002060006101000a81548173ffffffffffffffffffffffffffffffffffffffff021916908373ffffffffffffffffffffffffffffffffffffffff1602179055505b50565b6123ea6001826000015461241e90919063ffffffff16565b816000018190555050565b6001816000016000828254019250508190555050565b600080823b905060008111915050919050565b6000828211151515612498576040517f08c379a000000000000000000000000000000000000000000000000000000000815260040180806020018281038252601e8152602001807f536166654d6174683a207375627472616374696f6e206f766572666c6f77000081525060200191505060405180910390fd5b60008284039050809150509291505056fea165627a7a72305820b64aaafda51903d44d2c9d96e4c896e3384cc6667c2cb103e7d31457b6034096002960806040526040805190810160405280601381526020017f46756d69676174652044726f6e20546f6b656e00000000000000000000000000815250600390805190602001906200005192919062000373565b506040805190810160405280600381526020017f4644540000000000000000000000000000000000000000000000000000000000815250600490805190602001906200009f92919062000373565b50612710600555348015620000b357600080fd5b506040516020806200169d83398101806040526020811015620000d557600080fd5b810190808051906020019092919050505062000103816005546200010a640100000000026401000000009004565b5062000422565b600073ffffffffffffffffffffffffffffffffffffffff168273ffffffffffffffffffffffffffffffffffffffff1614151515620001b0576040517f08c379a000000000000000000000000000000000000000000000000000000000815260040180806020018281038252601f8152602001807f45524332303a206d696e7420746f20746865207a65726f20616464726573730081525060200191505060405180910390fd5b620001d581600254620002e864010000000002620011b5179091906401000000009004565b6002819055506200023c816000808573ffffffffffffffffffffffffffffffffffffffff1673ffffffffffffffffffffffffffffffffffffffff16815260200190815260200160002054620002e864010000000002620011b5179091906401000000009004565b6000808473ffffffffffffffffffffffffffffffffffffffff1673ffffffffffffffffffffffffffffffffffffffff168152602001908152602001600020819055508173ffffffffffffffffffffffffffffffffffffffff16600073ffffffffffffffffffffffffffffffffffffffff167fddf252ad1be2c89b69c2b068fc378daa952ba7f163c4a11628f55a4df523b3ef836040518082815260200191505060405180910390a35050565b600080828401905083811015151562000369576040517f08c379a000000000000000000000000000000000000000000000000000000000815260040180806020018281038252601b8152602001807f536166654d6174683a206164646974696f6e206f766572666c6f77000000000081525060200191505060405180910390fd5b8091505092915050565b828054600181600116156101000203166002900490600052602060002090601f016020900481019282601f10620003b657805160ff1916838001178555620003e7565b82800160010185558215620003e7579182015b82811115620003e6578251825591602001919060010190620003c9565b5b509050620003f69190620003fa565b5090565b6200041f91905b808211156200041b57600081600090555060010162000401565b5090565b90565b61126b80620004326000396000f3fe608060405260043610610093576000357c010000000000000000000000000000000000000000000000000000000090048063095ea7b31461009857806318160ddd1461010b57806323b872dd1461013657806339509351146101c95780634f8f4dab1461023c57806370a08231146102cf578063a457c2d714610334578063a9059cbb146103a7578063dd62ed3e1461041a575b600080fd5b3480156100a457600080fd5b506100f1600480360360408110156100bb57600080fd5b81019080803573ffffffffffffffffffffffffffffffffffffffff1690602001909291908035906020019092919050505061049f565b604051808215151515815260200191505060405180910390f35b34801561011757600080fd5b506101206104b6565b6040518082815260200191505060405180910390f35b34801561014257600080fd5b506101af6004803603606081101561015957600080fd5b81019080803573ffffffffffffffffffffffffffffffffffffffff169060200190929190803573ffffffffffffffffffffffffffffffffffffffff169060200190929190803590602001909291905050506104c0565b604051808215151515815260200191505060405180910390f35b3480156101d557600080fd5b50610222600480360360408110156101ec57600080fd5b81019080803573ffffffffffffffffffffffffffffffffffffffff16906020019092919080359060200190929190505050610571565b604051808215151515815260200191505060405180910390f35b34801561024857600080fd5b506102b56004803603606081101561025f57600080fd5b81019080803573ffffffffffffffffffffffffffffffffffffffff169060200190929190803573ffffffffffffffffffffffffffffffffffffffff16906020019092919080359060200190929190505050610616565b604051808215151515815260200191505060405180910390f35b3480156102db57600080fd5b5061031e600480360360208110156102f257600080fd5b81019080803573ffffffffffffffffffffffffffffffffffffffff1690602001909291905050506109f8565b6040518082815260200191505060405180910390f35b34801561034057600080fd5b5061038d6004803603604081101561035757600080fd5b81019080803573ffffffffffffffffffffffffffffffffffffffff16906020019092919080359060200190929190505050610a40565b604051808215151515815260200191505060405180910390f35b3480156103b357600080fd5b50610400600480360360408110156103ca57600080fd5b81019080803573ffffffffffffffffffffffffffffffffffffffff16906020019092919080359060200190929190505050610ae5565b604051808215151515815260200191505060405180910390f35b34801561042657600080fd5b506104896004803603604081101561043d57600080fd5b81019080803573ffffffffffffffffffffffffffffffffffffffff169060200190929190803573ffffffffffffffffffffffffffffffffffffffff169060200190929190505050610afc565b6040518082815260200191505060405180910390f35b60006104ac338484610b83565b6001905092915050565b6000600254905090565b60006104cd848484610e04565b610566843361056185600160008a73ffffffffffffffffffffffffffffffffffffffff1673ffffffffffffffffffffffffffffffffffffffff16815260200190815260200160002060003373ffffffffffffffffffffffffffffffffffffffff1673ffffffffffffffffffffffffffffffffffffffff1681526020019081526020016000205461112a90919063ffffffff16565b610b83565b600190509392505050565b600061060c338461060785600160003373ffffffffffffffffffffffffffffffffffffffff1673ffffffffffffffffffffffffffffffffffffffff16815260200190815260200160002060008973ffffffffffffffffffffffffffffffffffffffff1673ffffffffffffffffffffffffffffffffffffffff168152602001908152602001600020546111b590919063ffffffff16565b610b83565b6001905092915050565b60008073ffffffffffffffffffffffffffffffffffffffff168473ffffffffffffffffffffffffffffffffffffffff16141515156106e2576040517f08c379a00000000000000000000000000000000000000000000000000000000081526004018080602001828103825260258152602001807f45524332303a207472616e736665722066726f6d20746865207a65726f20616481526020017f647265737300000000000000000000000000000000000000000000000000000081525060400191505060405180910390fd5b600073ffffffffffffffffffffffffffffffffffffffff168373ffffffffffffffffffffffffffffffffffffffff16141515156107ad576040517f08c379a00000000000000000000000000000000000000000000000000000000081526004018080602001828103825260238152602001807f45524332303a207472616e7366657220746f20746865207a65726f206164647281526020017f657373000000000000000000000000000000000000000000000000000000000081525060400191505060405180910390fd5b816000808673ffffffffffffffffffffffffffffffffffffffff1673ffffffffffffffffffffffffffffffffffffffff16815260200190815260200160002054111515610862576040517f08c379a00000000000000000000000000000000000000000000000000000000081526004018080602001828103825260178152602001807f4e6f206861792073616c646f20737566696369656e746500000000000000000081525060200191505060405180910390fd5b6108b3826000808773ffffffffffffffffffffffffffffffffffffffff1673ffffffffffffffffffffffffffffffffffffffff1681526020019081526020016000205461112a90919063ffffffff16565b6000808673ffffffffffffffffffffffffffffffffffffffff1673ffffffffffffffffffffffffffffffffffffffff16815260200190815260200160002081905550610946826000808673ffffffffffffffffffffffffffffffffffffffff1673ffffffffffffffffffffffffffffffffffffffff168152602001908152602001600020546111b590919063ffffffff16565b6000808573ffffffffffffffffffffffffffffffffffffffff1673ffffffffffffffffffffffffffffffffffffffff168152602001908152602001600020819055508273ffffffffffffffffffffffffffffffffffffffff168473ffffffffffffffffffffffffffffffffffffffff167fddf252ad1be2c89b69c2b068fc378daa952ba7f163c4a11628f55a4df523b3ef846040518082815260200191505060405180910390a3600190509392505050565b60008060008373ffffffffffffffffffffffffffffffffffffffff1673ffffffffffffffffffffffffffffffffffffffff168152602001908152602001600020549050919050565b6000610adb3384610ad685600160003373ffffffffffffffffffffffffffffffffffffffff1673ffffffffffffffffffffffffffffffffffffffff16815260200190815260200160002060008973ffffffffffffffffffffffffffffffffffffffff1673ffffffffffffffffffffffffffffffffffffffff1681526020019081526020016000205461112a90919063ffffffff16565b610b83565b6001905092915050565b6000610af2338484610e04565b6001905092915050565b6000600160008473ffffffffffffffffffffffffffffffffffffffff1673ffffffffffffffffffffffffffffffffffffffff16815260200190815260200160002060008373ffffffffffffffffffffffffffffffffffffffff1673ffffffffffffffffffffffffffffffffffffffff16815260200190815260200160002054905092915050565b600073ffffffffffffffffffffffffffffffffffffffff168373ffffffffffffffffffffffffffffffffffffffff1614151515610c4e576040517f08c379a00000000000000000000000000000000000000000000000000000000081526004018080602001828103825260248152602001807f45524332303a20617070726f76652066726f6d20746865207a65726f2061646481526020017f726573730000000000000000000000000000000000000000000000000000000081525060400191505060405180910390fd5b600073ffffffffffffffffffffffffffffffffffffffff168273ffffffffffffffffffffffffffffffffffffffff1614151515610d19576040517f08c379a00000000000000000000000000000000000000000000000000000000081526004018080602001828103825260228152602001807f45524332303a20617070726f766520746f20746865207a65726f20616464726581526020017f737300000000000000000000000000000000000000000000000000000000000081525060400191505060405180910390fd5b80600160008573ffffffffffffffffffffffffffffffffffffffff1673ffffffffffffffffffffffffffffffffffffffff16815260200190815260200160002060008473ffffffffffffffffffffffffffffffffffffffff1673ffffffffffffffffffffffffffffffffffffffff168152602001908152602001600020819055508173ffffffffffffffffffffffffffffffffffffffff168373ffffffffffffffffffffffffffffffffffffffff167f8c5be1e5ebec7d5bd14f71427d1e84f3dd0314c0f7b2291e5b200ac8c7c3b925836040518082815260200191505060405180910390a3505050565b600073ffffffffffffffffffffffffffffffffffffffff168373ffffffffffffffffffffffffffffffffffffffff1614151515610ecf576040517f08c379a00000000000000000000000000000000000000000000000000000000081526004018080602001828103825260258152602001807f45524332303a207472616e736665722066726f6d20746865207a65726f20616481526020017f647265737300000000000000000000000000000000000000000000000000000081525060400191505060405180910390fd5b600073ffffffffffffffffffffffffffffffffffffffff168273ffffffffffffffffffffffffffffffffffffffff1614151515610f9a576040517f08c379a00000000000000000000000000000000000000000000000000000000081526004018080602001828103825260238152602001807f45524332303a207472616e7366657220746f20746865207a65726f206164647281526020017f657373000000000000000000000000000000000000000000000000000000000081525060400191505060405180910390fd5b610feb816000808673ffffffffffffffffffffffffffffffffffffffff1673ffffffffffffffffffffffffffffffffffffffff1681526020019081526020016000205461112a90919063ffffffff16565b6000808573ffffffffffffffffffffffffffffffffffffffff1673ffffffffffffffffffffffffffffffffffffffff1681526020019081526020016000208190555061107e816000808573ffffffffffffffffffffffffffffffffffffffff1673ffffffffffffffffffffffffffffffffffffffff168152602001908152602001600020546111b590919063ffffffff16565b6000808473ffffffffffffffffffffffffffffffffffffffff1673ffffffffffffffffffffffffffffffffffffffff168152602001908152602001600020819055508173ffffffffffffffffffffffffffffffffffffffff168373ffffffffffffffffffffffffffffffffffffffff167fddf252ad1be2c89b69c2b068fc378daa952ba7f163c4a11628f55a4df523b3ef836040518082815260200191505060405180910390a3505050565b60008282111515156111a4576040517f08c379a000000000000000000000000000000000000000000000000000000000815260040180806020018281038252601e8152602001807f536166654d6174683a207375627472616374696f6e206f766572666c6f77000081525060200191505060405180910390fd5b600082840390508091505092915050565b6000808284019050838110151515611235576040517f08c379a000000000000000000000000000000000000000000000000000000000815260040180806020018281038252601b8152602001807f536166654d6174683a206164646974696f6e206f766572666c6f77000000000081525060200191505060405180910390fd5b809150509291505056fea165627a7a72305820ff1d4be794ea242bd0174c7ef4e4578c45cceb54b757d64fb0f8d81ab0c9e5030029",
  "source": "// SPDX-License-Identifier: MIT\npragma solidity >=0.5.0;\npragma experimental ABIEncoderV2;\n\nimport \"./Ownable.sol\";\nimport \"./IERC721Receiver.sol\";\nimport \"./Dron.sol\";\nimport \"./Plot.sol\";\nimport \"./FDT.sol\";\n\n\ncontract Dapp is Ownable{\n\n    address _contract_address;\n    address _contract_owner;\n    address _dron_token_collection_address;\n    address _plot_token_collection_address;    \n    address _fdt_token_address;\n    mapping(uint256 => address) _dron_owner;\n    //mapping(uint256 => DronToken) _dron_tokens;\n\n    // Id dron => Indice de pendientes\n    mapping(uint256 => int256)  _bookings_dron;\n\n    // id parcela => indice de pendientes\n    mapping(uint256 => int256) _bookings_plot;\n    mapping(uint256 => address) _plot_owner;\n\n    mapping(address => uint256[]) _plots_by_owner;\n    //mapping(uint256 => PlotToken) _plot_tokens;\n\n    struct single_pending_booking{\n        uint256 dron_id;\n        uint256 plot_id;\n    }\n    single_pending_booking[] _pending_booking;\n    uint256 _num_pending;\n    FDT _fdt;\n    \n\n    constructor() public{\n        _contract_address = address(this);\n        _contract_owner = msg.sender;\n        _dron_token_collection_address = address(new DronToken());\n        _plot_token_collection_address = address(new PlotToken());        \n\n        _fdt = new FDT(_contract_address);\n    } \n        \n\n    function getContAddress() public view returns(address){\n        return _contract_address;\n    }\n    function getContOwner() public view returns(address){\n        return _contract_owner;\n    }\n\n    function createDron(address owner_, uint256 max_Height_, uint256 min_Height_, uint8 cost_, uint8 p1_, uint8 p2_, uint8 p3_, uint8 p4_, uint8 p5_) public returns (uint256)\n    {\n        uint8[] memory pesticides_ = new uint8[](5);\n        pesticides_[0] = p1_;\n        pesticides_[1] = p2_;\n        pesticides_[2] = p3_;\n        pesticides_[3] = p4_;\n        pesticides_[4] = p5_;\n\n        DronToken dron_token_collection = DronToken(_dron_token_collection_address);\n        uint256 token_Id = dron_token_collection.mint(owner_, max_Height_, min_Height_, cost_, pesticides_);\n\n        _dron_owner[token_Id] = owner_; \n        _bookings_dron[token_Id] = -1;\n        return token_Id;\n    }\n\n    function createPlot(address owner_, uint256 max_Height_, uint256 min_Height_, uint8 pesticide_) public returns (uint256)\n    {\n        PlotToken plot_token_collection = PlotToken(_plot_token_collection_address);\n        uint256 token_Id = plot_token_collection.mint(owner_, max_Height_, min_Height_, pesticide_);\n\n        _plot_owner[token_Id] = owner_;           \n        _plots_by_owner[owner_].push(token_Id);\n        _bookings_plot[token_Id] = -1;\n        return token_Id;\n    }\n       \n\n    event BookedDron (uint256 dron_id, uint256 plot_id, uint256 cost_);\n    function bookDron(uint256 dron_id_, uint256 plot_id_) public returns (uint256)\n    {   _num_pending = _pending_booking.length;\n        require(_bookings_dron[dron_id_] == -1, \"Dron ya reservado\");\n        require(_bookings_plot[plot_id_] == -1, \"Parcela ya reservada\");\n\n        DronToken dron_token_collection = DronToken(_dron_token_collection_address);\n        uint256 cost = dron_token_collection.getDronCost(dron_id_);\n\n        PlotToken plot_token_collection = PlotToken(_plot_token_collection_address);\n        address plot_owner = plot_token_collection.getPlotOwner(plot_id_);\n\n        require(plot_owner == msg.sender, \"La reserva solo la pueda hacer el dueno de la parcela\");\n\n        require(isCompatibleDronPlot(dron_id_, plot_id_) == 1, \"Dron y parcela no compatibles\");\n\n        require(_fdt.balanceOf(msg.sender) > cost, \"Coste mayor que el balance\");\n        _fdt.customTransfer(msg.sender, _contract_address, cost);\n                \n        _bookings_dron[dron_id_] = int(_num_pending);\n        _bookings_plot[plot_id_] = int(_num_pending);\n        \n        single_pending_booking memory new_booking = single_pending_booking(dron_id_,plot_id_);        \n        _pending_booking.push(new_booking);        \n\n        _num_pending = _pending_booking.length;\n\n        emit BookedDron(dron_id_, plot_id_, cost);\n        return 0;\n    }\n\n    function getPendingBooking() public view returns (single_pending_booking[] memory){\n        return _pending_booking;\n    }\n\n    event FumigatedPlot (uint256 plot_id, uint256 dron_id);\n\n    function fumigatePlot(uint256 plot_id_) onlyOwner public returns (uint256)\n    {\n        _num_pending = _pending_booking.length;\n        require(_bookings_plot[plot_id_] >= 0, \"La parcela no est pendiente de fumigar\");\n        require(_num_pending > 0, \"No hay reservas pendientes de fumigar\");\n        \n        uint256 i_to_delete = uint(_bookings_plot[plot_id_]);\n        uint256 dron_id = _pending_booking[i_to_delete].dron_id;\n        require(_bookings_dron[dron_id] >= 0, \"El dron no est pendiente de fumigar\");\n\n        if (_num_pending >1){\n            // Movemos la reserva pendiente de la ltima posicin, a la posin de la reserva que quedar libre tras la fumigacin\n            uint256 dron_id_to_mov = _pending_booking[_num_pending-1].dron_id;\n            uint256 plot_id_to_mov = _pending_booking[_num_pending-1].plot_id;\n            _bookings_plot[plot_id_to_mov] = int(i_to_delete);\n            _bookings_dron[dron_id_to_mov] = int(i_to_delete);\n            _pending_booking[i_to_delete].plot_id = plot_id_to_mov;\n            _pending_booking[i_to_delete].dron_id = dron_id_to_mov;\n        }        \n        delete _pending_booking[_num_pending-1];\n\n        _pending_booking.length--;\n        _num_pending = _pending_booking.length;\n        // liberar reservas del dron y de la parcela\n        _bookings_dron[dron_id] = -1;\n        _bookings_plot[plot_id_] = -1;\n\n        emit FumigatedPlot(plot_id_, dron_id);\n        return 1;\n    }\n\n    function isBookedPlot(uint256 plot_id_) public view returns (int256)\n    {        \n        return _bookings_plot[plot_id_];\n    }\n    function isBookedDron(uint256 dron_id_) public view returns (int256)\n    {        \n        return _bookings_dron[dron_id_];\n    }\n\n    function isCompatibleDron(uint256 id_dron_, uint256 max_Height_, uint256 min_Height_, uint256 pesticide_) public returns (uint256)\n    {        \n        uint256 max_Height;\n        uint256 min_Height;\n        uint256 cost;\n        uint8[] memory pesticides;\n        address owner;\n\n        DronToken dron_token_collection = DronToken(_dron_token_collection_address);\n        (max_Height, min_Height, cost, pesticides, owner) = dron_token_collection.getDronInfo(id_dron_);\n\n         if (max_Height >= max_Height_ && min_Height <= min_Height_ && pesticides[pesticide_] == 1)\n         {\n            return 1;            \n         }\n         else {\n            return 0;\n         }\n    }\n\n    function isCompatibleDronPlot(uint256 dron_id_, uint256 plot_id_) public returns (uint256){\n        uint256 max_Height;\n        uint256 min_Height;        \n        uint8 pesticide;\n        address owner;\n\n        PlotToken plot_token_collection = PlotToken(_plot_token_collection_address); \n        (max_Height, min_Height, pesticide, owner) = plot_token_collection.getPlotInfo(plot_id_);  \n\n        return isCompatibleDron(dron_id_, max_Height, min_Height, pesticide);\n    }\n\n    function getLastDronId() public view returns(uint256) {  \n        uint256 id ;\n        DronToken dron_token_collection = DronToken(_dron_token_collection_address);\n        id = dron_token_collection.getLastId();        \n        return id;\n    }\n\n    function getDronInfo(uint256 id_) public returns (uint256 max_Height, uint256 min_Height, uint256 cost, uint8[] memory  pesticides, address owner) {  \n        DronToken dron_token_collection = DronToken(_dron_token_collection_address);\n        return dron_token_collection.getDronInfo(id_);        \n    }\n\n    function getDronCost(uint256 dron_id_) public  view returns (uint256){\n        DronToken dron_token_collection = DronToken(_dron_token_collection_address);\n        return dron_token_collection.getDronCost(dron_id_);\n    }\n\n    function getLastPlotId() public view returns(uint256) {  \n        uint256 id ;\n        PlotToken plot_token_collection = PlotToken(_plot_token_collection_address);\n        id = plot_token_collection.getLastId();        \n        return id;\n    }\n    function getPlotInfo(uint256 id_) public returns (uint256 max_Height, uint256 min_Height, uint8 pesticide, address owner) {  \n        PlotToken plot_token_collection = PlotToken(_plot_token_collection_address);\n        return plot_token_collection.getPlotInfo(id_);        \n    }\n\n    function getPlotsByOwner(address owner_) public view returns (uint256[] memory) {          \n        return _plots_by_owner[owner_];\n    }\n\n    function searchDronAvailable(uint256 plot_id_) public returns (uint256) {          \n        uint256 max_Height;\n        uint256 min_Height;\n        uint8 pesticide;\n        address owner;\n        uint256 dron_id;\n        uint8 stop;\n\n        uint8 i = 0;\n        uint8 max_i = 10;\n\n        if (_bookings_plot[plot_id_] == -1){ \n            PlotToken plot_token_collection = PlotToken(_plot_token_collection_address);        \n            DronToken dron_token_collection = DronToken(_dron_token_collection_address);\n\n            (max_Height, min_Height, pesticide, owner) = plot_token_collection.getPlotInfo(plot_id_);\n\n            while(stop == 0){\n                dron_id = dron_token_collection.getDronByFilters(max_Height, min_Height, pesticide, dron_id+1);\n                if (dron_id == 0){\n                    stop = 1;\n                }\n                else if(_bookings_dron[dron_id] == -1){\n                    stop = 1;\n                }\n\n                // Evitar quedarse sin gas por algn error\n                i++;\n                if (i >= max_i)\n                {\n                    stop = 1;\n                }            \n            }\n        }\n                \n        return dron_id;\n    }\n\n    function buyTokensFDT(uint256 units_) public payable {\n        require(units_>0, \"Cantidad de token no vlida\");\n        \n        uint256 balance = _fdt.totalSupply();\n        uint256 amount = units_*(0.001 ether) ;\n        \n        require(units_ < balance, \"No quedan tokens FDT suficientes\");\n        require(msg.value >= amount , \"Cantidad de ETH insuficiente para la compra\");\n\n        address address_to = msg.sender;\n        uint256 extra_Eth = msg.value - amount;\n\n        _fdt.transfer(address_to, units_);\n        if (extra_Eth > 0 ){\n            msg.sender.transfer(extra_Eth); //mandar de vuelta, el eth extra (excedente) enviado en el pago\n        }\n    }\n\n    function getAcountBalance(address account_) public view returns (uint256){\n        return _fdt.balanceOf(account_);\n    }\n\n    function getDronByFilters(uint256 max_Height_,uint256 min_Height_, uint8 pesticide_, uint256 start_point_) public view returns (uint256){\n        DronToken dron_token_collection = DronToken(_dron_token_collection_address);\n        return dron_token_collection.getDronByFilters(max_Height_, min_Height_, pesticide_, start_point_);\n    }\n}\n",
  "sourcePath": "/home/usuario/tfe/fumdapp/src/contracts/Dapp.sol",
  "compiler": {
    "name": "solc",
    "version": "0.5.1+commit.c8a2cb62.Emscripten.clang"
  },
  "schemaVersion": "3.0.9",
  "updatedAt": "2022-07-03T11:56:05.306Z",
  "devdoc": {
    "methods": {
      "isOwner()": {
        "details": "Returns true if the caller is the current owner."
      },
      "owner()": {
        "details": "Returns the address of the current owner."
      },
      "renounceOwnership()": {
        "details": "Leaves the contract without owner. It will not be possible to call `onlyOwner` functions anymore. Can only be called by the current owner.     * > Note: Renouncing ownership will leave the contract without an owner, thereby removing any functionality that is only available to the owner."
      },
      "transferOwnership(address)": {
        "details": "Transfers ownership of the contract to a new account (`newOwner`). Can only be called by the current owner."
      }
    }
  },
  "userdoc": {
    "methods": {}
  }
}