{
  "contractName": "DronToken",
  "abi": [
    {
      "constant": true,
      "inputs": [
        {
          "name": "interfaceId",
          "type": "bytes4"
        }
      ],
      "name": "supportsInterface",
      "outputs": [
        {
          "name": "",
          "type": "bool"
        }
      ],
      "payable": false,
      "stateMutability": "view",
      "type": "function"
    },
    {
      "constant": true,
      "inputs": [
        {
          "name": "tokenId",
          "type": "uint256"
        }
      ],
      "name": "getApproved",
      "outputs": [
        {
          "name": "",
          "type": "address"
        }
      ],
      "payable": false,
      "stateMutability": "view",
      "type": "function"
    },
    {
      "constant": false,
      "inputs": [
        {
          "name": "to",
          "type": "address"
        },
        {
          "name": "tokenId",
          "type": "uint256"
        }
      ],
      "name": "approve",
      "outputs": [],
      "payable": false,
      "stateMutability": "nonpayable",
      "type": "function"
    },
    {
      "constant": false,
      "inputs": [
        {
          "name": "from",
          "type": "address"
        },
        {
          "name": "to",
          "type": "address"
        },
        {
          "name": "tokenId",
          "type": "uint256"
        }
      ],
      "name": "transferFrom",
      "outputs": [],
      "payable": false,
      "stateMutability": "nonpayable",
      "type": "function"
    },
    {
      "constant": false,
      "inputs": [
        {
          "name": "from",
          "type": "address"
        },
        {
          "name": "to",
          "type": "address"
        },
        {
          "name": "tokenId",
          "type": "uint256"
        }
      ],
      "name": "safeTransferFrom",
      "outputs": [],
      "payable": false,
      "stateMutability": "nonpayable",
      "type": "function"
    },
    {
      "constant": true,
      "inputs": [
        {
          "name": "tokenId",
          "type": "uint256"
        }
      ],
      "name": "ownerOf",
      "outputs": [
        {
          "name": "",
          "type": "address"
        }
      ],
      "payable": false,
      "stateMutability": "view",
      "type": "function"
    },
    {
      "constant": true,
      "inputs": [
        {
          "name": "owner",
          "type": "address"
        }
      ],
      "name": "balanceOf",
      "outputs": [
        {
          "name": "",
          "type": "uint256"
        }
      ],
      "payable": false,
      "stateMutability": "view",
      "type": "function"
    },
    {
      "constant": false,
      "inputs": [],
      "name": "renounceOwnership",
      "outputs": [],
      "payable": false,
      "stateMutability": "nonpayable",
      "type": "function"
    },
    {
      "constant": true,
      "inputs": [],
      "name": "owner",
      "outputs": [
        {
          "name": "",
          "type": "address"
        }
      ],
      "payable": false,
      "stateMutability": "view",
      "type": "function"
    },
    {
      "constant": true,
      "inputs": [],
      "name": "isOwner",
      "outputs": [
        {
          "name": "",
          "type": "bool"
        }
      ],
      "payable": false,
      "stateMutability": "view",
      "type": "function"
    },
    {
      "constant": true,
      "inputs": [],
      "name": "last_id",
      "outputs": [
        {
          "name": "",
          "type": "uint256"
        }
      ],
      "payable": false,
      "stateMutability": "view",
      "type": "function"
    },
    {
      "constant": false,
      "inputs": [
        {
          "name": "to",
          "type": "address"
        },
        {
          "name": "approved",
          "type": "bool"
        }
      ],
      "name": "setApprovalForAll",
      "outputs": [],
      "payable": false,
      "stateMutability": "nonpayable",
      "type": "function"
    },
    {
      "constant": true,
      "inputs": [],
      "name": "getLastId",
      "outputs": [
        {
          "name": "",
          "type": "uint256"
        }
      ],
      "payable": false,
      "stateMutability": "view",
      "type": "function"
    },
    {
      "constant": false,
      "inputs": [
        {
          "name": "from",
          "type": "address"
        },
        {
          "name": "to",
          "type": "address"
        },
        {
          "name": "tokenId",
          "type": "uint256"
        },
        {
          "name": "_data",
          "type": "bytes"
        }
      ],
      "name": "safeTransferFrom",
      "outputs": [],
      "payable": false,
      "stateMutability": "nonpayable",
      "type": "function"
    },
    {
      "constant": true,
      "inputs": [
        {
          "name": "owner",
          "type": "address"
        },
        {
          "name": "operator",
          "type": "address"
        }
      ],
      "name": "isApprovedForAll",
      "outputs": [
        {
          "name": "",
          "type": "bool"
        }
      ],
      "payable": false,
      "stateMutability": "view",
      "type": "function"
    },
    {
      "constant": false,
      "inputs": [
        {
          "name": "newOwner",
          "type": "address"
        }
      ],
      "name": "transferOwnership",
      "outputs": [],
      "payable": false,
      "stateMutability": "nonpayable",
      "type": "function"
    },
    {
      "inputs": [],
      "payable": false,
      "stateMutability": "nonpayable",
      "type": "constructor"
    },
    {
      "anonymous": false,
      "inputs": [
        {
          "indexed": true,
          "name": "max_Height",
          "type": "uint256"
        },
        {
          "indexed": true,
          "name": "min_Height",
          "type": "uint256"
        },
        {
          "indexed": true,
          "name": "cost",
          "type": "uint256"
        },
        {
          "indexed": false,
          "name": "pesticides",
          "type": "uint8[]"
        }
      ],
      "name": "DronInfo",
      "type": "event"
    },
    {
      "anonymous": false,
      "inputs": [
        {
          "indexed": true,
          "name": "previousOwner",
          "type": "address"
        },
        {
          "indexed": true,
          "name": "newOwner",
          "type": "address"
        }
      ],
      "name": "OwnershipTransferred",
      "type": "event"
    },
    {
      "anonymous": false,
      "inputs": [
        {
          "indexed": true,
          "name": "from",
          "type": "address"
        },
        {
          "indexed": true,
          "name": "to",
          "type": "address"
        },
        {
          "indexed": true,
          "name": "tokenId",
          "type": "uint256"
        }
      ],
      "name": "Transfer",
      "type": "event"
    },
    {
      "anonymous": false,
      "inputs": [
        {
          "indexed": true,
          "name": "owner",
          "type": "address"
        },
        {
          "indexed": true,
          "name": "approved",
          "type": "address"
        },
        {
          "indexed": true,
          "name": "tokenId",
          "type": "uint256"
        }
      ],
      "name": "Approval",
      "type": "event"
    },
    {
      "anonymous": false,
      "inputs": [
        {
          "indexed": true,
          "name": "owner",
          "type": "address"
        },
        {
          "indexed": true,
          "name": "operator",
          "type": "address"
        },
        {
          "indexed": false,
          "name": "approved",
          "type": "bool"
        }
      ],
      "name": "ApprovalForAll",
      "type": "event"
    },
    {
      "constant": false,
      "inputs": [
        {
          "name": "owner_",
          "type": "address"
        },
        {
          "name": "max_Height_",
          "type": "uint256"
        },
        {
          "name": "min_Height_",
          "type": "uint256"
        },
        {
          "name": "cost_",
          "type": "uint256"
        },
        {
          "name": "pesticides_",
          "type": "uint8[]"
        }
      ],
      "name": "mint",
      "outputs": [
        {
          "name": "",
          "type": "uint256"
        }
      ],
      "payable": false,
      "stateMutability": "nonpayable",
      "type": "function"
    },
    {
      "constant": false,
      "inputs": [
        {
          "name": "id_",
          "type": "uint256"
        }
      ],
      "name": "getDronInfo",
      "outputs": [
        {
          "name": "max_Height",
          "type": "uint256"
        },
        {
          "name": "min_Height",
          "type": "uint256"
        },
        {
          "name": "cost",
          "type": "uint256"
        },
        {
          "name": "pesticides",
          "type": "uint8[]"
        },
        {
          "name": "owner",
          "type": "address"
        }
      ],
      "payable": false,
      "stateMutability": "nonpayable",
      "type": "function"
    },
    {
      "constant": true,
      "inputs": [
        {
          "name": "id_",
          "type": "uint256"
        }
      ],
      "name": "getDronCost",
      "outputs": [
        {
          "name": "",
          "type": "uint256"
        }
      ],
      "payable": false,
      "stateMutability": "view",
      "type": "function"
    },
    {
      "constant": true,
      "inputs": [
        {
          "name": "max_Height_",
          "type": "uint256"
        },
        {
          "name": "min_Height_",
          "type": "uint256"
        },
        {
          "name": "pesticide_",
          "type": "uint8"
        },
        {
          "name": "start_point_",
          "type": "uint256"
        }
      ],
      "name": "getDronByFilters",
      "outputs": [
        {
          "name": "",
          "type": "uint256"
        }
      ],
      "payable": false,
      "stateMutability": "view",
      "type": "function"
    }
  ],
  "bytecode": "0x60806040526020604051908101604052806000815250600890805190602001906200002c929190620002c9565b503480156200003a57600080fd5b50620000786301ffc9a77c010000000000000000000000000000000000000000000000000000000002620001a2640100000000026401000000009004565b620000b56380ac58cd7c010000000000000000000000000000000000000000000000000000000002620001a2640100000000026401000000009004565b33600560006101000a81548173ffffffffffffffffffffffffffffffffffffffff021916908373ffffffffffffffffffffffffffffffffffffffff160217905550600560009054906101000a900473ffffffffffffffffffffffffffffffffffffffff1673ffffffffffffffffffffffffffffffffffffffff16600073ffffffffffffffffffffffffffffffffffffffff167f8be0079c531659141344cd1fd0a4f28419497f9722a3daafe3b4186f6b6457e060405160405180910390a36020604051908101604052806000815250600890805190602001906200019b929190620002c9565b5062000378565b63ffffffff7c010000000000000000000000000000000000000000000000000000000002817bffffffffffffffffffffffffffffffffffffffffffffffffffffffff1916141515156200025d576040517f08c379a000000000000000000000000000000000000000000000000000000000815260040180806020018281038252601c8152602001807f4552433136353a20696e76616c696420696e746572666163652069640000000081525060200191505060405180910390fd5b6001600080837bffffffffffffffffffffffffffffffffffffffffffffffffffffffff19167bffffffffffffffffffffffffffffffffffffffffffffffffffffffff1916815260200190815260200160002060006101000a81548160ff02191690831515021790555050565b828054600181600116156101000203166002900490600052602060002090601f016020900481019282601f106200030c57805160ff19168380011785556200033d565b828001600101855582156200033d579182015b828111156200033c5782518255916020019190600101906200031f565b5b5090506200034c919062000350565b5090565b6200037591905b808211156200037157600081600090555060010162000357565b5090565b90565b6128ca80620003886000396000f3fe60806040526004361061010c576000357c01000000000000000000000000000000000000000000000000000000009004806301ffc9a714610111578063070f551e14610183578063081812fc146101d2578063095ea7b31461024d5780631d56ed92146102a857806323b872dd1461031857806342842e0e146103935780636352211e1461040e57806370a0823114610489578063715018a6146104ee5780638da5cb5b146105055780638f32d59b1461055c57806394e8d2841461058b578063a22cb465146105b6578063a8e5862d14610613578063b88d4fde1461063e578063c36b567814610750578063e985e9c514610867578063f2fde38b146108f0578063ffcce32814610941575b600080fd5b34801561011d57600080fd5b506101696004803603602081101561013457600080fd5b8101908080357bffffffffffffffffffffffffffffffffffffffffffffffffffffffff19169060200190929190505050610a19565b604051808215151515815260200191505060405180910390f35b34801561018f57600080fd5b506101bc600480360360208110156101a657600080fd5b8101908080359060200190929190505050610a80565b6040518082815260200191505060405180910390f35b3480156101de57600080fd5b5061020b600480360360208110156101f557600080fd5b8101908080359060200190929190505050610aa0565b604051808273ffffffffffffffffffffffffffffffffffffffff1673ffffffffffffffffffffffffffffffffffffffff16815260200191505060405180910390f35b34801561025957600080fd5b506102a66004803603604081101561027057600080fd5b81019080803573ffffffffffffffffffffffffffffffffffffffff16906020019092919080359060200190929190505050610b80565b005b3480156102b457600080fd5b50610302600480360360808110156102cb57600080fd5b810190808035906020019092919080359060200190929190803560ff16906020019092919080359060200190929190505050610de3565b6040518082815260200191505060405180910390f35b34801561032457600080fd5b506103916004803603606081101561033b57600080fd5b81019080803573ffffffffffffffffffffffffffffffffffffffff169060200190929190803573ffffffffffffffffffffffffffffffffffffffff16906020019092919080359060200190929190505050610ecd565b005b34801561039f57600080fd5b5061040c600480360360608110156103b657600080fd5b81019080803573ffffffffffffffffffffffffffffffffffffffff169060200190929190803573ffffffffffffffffffffffffffffffffffffffff16906020019092919080359060200190929190505050610f81565b005b34801561041a57600080fd5b506104476004803603602081101561043157600080fd5b8101908080359060200190929190505050610fa2565b604051808273ffffffffffffffffffffffffffffffffffffffff1673ffffffffffffffffffffffffffffffffffffffff16815260200191505060405180910390f35b34801561049557600080fd5b506104d8600480360360208110156104ac57600080fd5b81019080803573ffffffffffffffffffffffffffffffffffffffff1690602001909291905050506110af565b6040518082815260200191505060405180910390f35b3480156104fa57600080fd5b506105036111c9565b005b34801561051157600080fd5b5061051a611306565b604051808273ffffffffffffffffffffffffffffffffffffffff1673ffffffffffffffffffffffffffffffffffffffff16815260200191505060405180910390f35b34801561056857600080fd5b50610571611330565b604051808215151515815260200191505060405180910390f35b34801561059757600080fd5b506105a0611388565b6040518082815260200191505060405180910390f35b3480156105c257600080fd5b50610611600480360360408110156105d957600080fd5b81019080803573ffffffffffffffffffffffffffffffffffffffff16906020019092919080351515906020019092919050505061138e565b005b34801561061f57600080fd5b50610628611533565b6040518082815260200191505060405180910390f35b34801561064a57600080fd5b5061074e6004803603608081101561066157600080fd5b81019080803573ffffffffffffffffffffffffffffffffffffffff169060200190929190803573ffffffffffffffffffffffffffffffffffffffff16906020019092919080359060200190929190803590602001906401000000008111156106c857600080fd5b8201836020820111156106da57600080fd5b803590602001918460018302840111640100000000831117156106fc57600080fd5b91908080601f016020809104026020016040519081016040528093929190818152602001838380828437600081840152601f19601f82011690508083019250505050505050919291929050505061153d565b005b34801561075c57600080fd5b50610851600480360360a081101561077357600080fd5b81019080803573ffffffffffffffffffffffffffffffffffffffff169060200190929190803590602001909291908035906020019092919080359060200190929190803590602001906401000000008111156107ce57600080fd5b8201836020820111156107e057600080fd5b8035906020019184602083028401116401000000008311171561080257600080fd5b919080806020026020016040519081016040528093929190818152602001838360200280828437600081840152601f19601f8201169050808301925050505050505091929192905050506115f4565b6040518082815260200191505060405180910390f35b34801561087357600080fd5b506108d66004803603604081101561088a57600080fd5b81019080803573ffffffffffffffffffffffffffffffffffffffff169060200190929190803573ffffffffffffffffffffffffffffffffffffffff169060200190929190505050611792565b604051808215151515815260200191505060405180910390f35b3480156108fc57600080fd5b5061093f6004803603602081101561091357600080fd5b81019080803573ffffffffffffffffffffffffffffffffffffffff169060200190929190505050611826565b005b34801561094d57600080fd5b5061097a6004803603602081101561096457600080fd5b81019080803590602001909291905050506118ae565b60405180868152602001858152602001848152602001806020018373ffffffffffffffffffffffffffffffffffffffff1673ffffffffffffffffffffffffffffffffffffffff168152602001828103825284818151815260200191508051906020019060200280838360005b83811015610a015780820151818401526020810190506109e6565b50505050905001965050505050505060405180910390f35b6000806000837bffffffffffffffffffffffffffffffffffffffffffffffffffffffff19167bffffffffffffffffffffffffffffffffffffffffffffffffffffffff1916815260200190815260200160002060009054906101000a900460ff169050919050565b600060096000838152602001908152602001600020600201549050919050565b6000610aab82611bb2565b1515610b45576040517f08c379a000000000000000000000000000000000000000000000000000000000815260040180806020018281038252602c8152602001807f4552433732313a20617070726f76656420717565727920666f72206e6f6e657881526020017f697374656e7420746f6b656e000000000000000000000000000000000000000081525060400191505060405180910390fd5b6002600083815260200190815260200160002060009054906101000a900473ffffffffffffffffffffffffffffffffffffffff169050919050565b6000610b8b82610fa2565b90508073ffffffffffffffffffffffffffffffffffffffff168373ffffffffffffffffffffffffffffffffffffffff1614151515610c57576040517f08c379a00000000000000000000000000000000000000000000000000000000081526004018080602001828103825260218152602001807f4552433732313a20617070726f76616c20746f2063757272656e74206f776e6581526020017f720000000000000000000000000000000000000000000000000000000000000081525060400191505060405180910390fd5b8073ffffffffffffffffffffffffffffffffffffffff163373ffffffffffffffffffffffffffffffffffffffff161480610c975750610c968133611792565b5b1515610d31576040517f08c379a00000000000000000000000000000000000000000000000000000000081526004018080602001828103825260388152602001807f4552433732313a20617070726f76652063616c6c6572206973206e6f74206f7781526020017f6e6572206e6f7220617070726f76656420666f7220616c6c000000000000000081525060400191505060405180910390fd5b826002600084815260200190815260200160002060006101000a81548173ffffffffffffffffffffffffffffffffffffffff021916908373ffffffffffffffffffffffffffffffffffffffff160217905550818373ffffffffffffffffffffffffffffffffffffffff168273ffffffffffffffffffffffffffffffffffffffff167f8c5be1e5ebec7d5bd14f71427d1e84f3dd0314c0f7b2291e5b200ac8c7c3b92560405160405180910390a4505050565b60008060009050600083905060008090505b60008360ff161415610ebf57600654821115610e145760019250610eb2565b87600960008481526020019081526020016000206001015411158015610e50575086600960008481526020019081526020016000206000015410155b8015610ea457506001600960008481526020019081526020016000206003018760ff16815481101515610e7f57fe5b90600052602060002090602091828204019190069054906101000a900460ff1660ff16145b15610eb157819050600192505b5b8180600101925050610df5565b809350505050949350505050565b610ed73382611c24565b1515610f71576040517f08c379a00000000000000000000000000000000000000000000000000000000081526004018080602001828103825260318152602001807f4552433732313a207472616e736665722063616c6c6572206973206e6f74206f81526020017f776e6572206e6f7220617070726f76656400000000000000000000000000000081525060400191505060405180910390fd5b610f7c838383611d5d565b505050565b610f9d838383602060405190810160405280600081525061153d565b505050565b6000806001600084815260200190815260200160002060009054906101000a900473ffffffffffffffffffffffffffffffffffffffff169050600073ffffffffffffffffffffffffffffffffffffffff168173ffffffffffffffffffffffffffffffffffffffff16141515156110a6576040517f08c379a00000000000000000000000000000000000000000000000000000000081526004018080602001828103825260298152602001807f4552433732313a206f776e657220717565727920666f72206e6f6e657869737481526020017f656e7420746f6b656e000000000000000000000000000000000000000000000081525060400191505060405180910390fd5b80915050919050565b60008073ffffffffffffffffffffffffffffffffffffffff168273ffffffffffffffffffffffffffffffffffffffff161415151561117b576040517f08c379a000000000000000000000000000000000000000000000000000000000815260040180806020018281038252602a8152602001807f4552433732313a2062616c616e636520717565727920666f7220746865207a6581526020017f726f20616464726573730000000000000000000000000000000000000000000081525060400191505060405180910390fd5b6111c2600360008473ffffffffffffffffffffffffffffffffffffffff1673ffffffffffffffffffffffffffffffffffffffff168152602001908152602001600020612042565b9050919050565b6111d1611330565b1515611245576040517f08c379a00000000000000000000000000000000000000000000000000000000081526004018080602001828103825260208152602001807f4f776e61626c653a2063616c6c6572206973206e6f7420746865206f776e657281525060200191505060405180910390fd5b600073ffffffffffffffffffffffffffffffffffffffff16600560009054906101000a900473ffffffffffffffffffffffffffffffffffffffff1673ffffffffffffffffffffffffffffffffffffffff167f8be0079c531659141344cd1fd0a4f28419497f9722a3daafe3b4186f6b6457e060405160405180910390a36000600560006101000a81548173ffffffffffffffffffffffffffffffffffffffff021916908373ffffffffffffffffffffffffffffffffffffffff160217905550565b6000600560009054906101000a900473ffffffffffffffffffffffffffffffffffffffff16905090565b6000600560009054906101000a900473ffffffffffffffffffffffffffffffffffffffff1673ffffffffffffffffffffffffffffffffffffffff163373ffffffffffffffffffffffffffffffffffffffff1614905090565b60065481565b3373ffffffffffffffffffffffffffffffffffffffff168273ffffffffffffffffffffffffffffffffffffffff1614151515611432576040517f08c379a00000000000000000000000000000000000000000000000000000000081526004018080602001828103825260198152602001807f4552433732313a20617070726f766520746f2063616c6c65720000000000000081525060200191505060405180910390fd5b80600460003373ffffffffffffffffffffffffffffffffffffffff1673ffffffffffffffffffffffffffffffffffffffff16815260200190815260200160002060008473ffffffffffffffffffffffffffffffffffffffff1673ffffffffffffffffffffffffffffffffffffffff16815260200190815260200160002060006101000a81548160ff0219169083151502179055508173ffffffffffffffffffffffffffffffffffffffff163373ffffffffffffffffffffffffffffffffffffffff167f17307eab39ab6107e8899845ad3d59bd9653f200f220920489ca2b5937696c3183604051808215151515815260200191505060405180910390a35050565b6000600654905090565b611548848484610ecd565b61155484848484612050565b15156115ee576040517f08c379a00000000000000000000000000000000000000000000000000000000081526004018080602001828103825260328152602001807f4552433732313a207472616e7366657220746f206e6f6e20455243373231526581526020017f63656976657220696d706c656d656e746572000000000000000000000000000081525060400191505060405180910390fd5b50505050565b60006115fe611330565b1515611672576040517f08c379a00000000000000000000000000000000000000000000000000000000081526004018080602001828103825260208152602001807f4f776e61626c653a2063616c6c6572206973206e6f7420746865206f776e657281525060200191505060405180910390fd5b600061167c612273565b90506116888782612289565b856009600083815260200190815260200160002060000181905550846009600083815260200190815260200160002060010181905550836009600083815260200190815260200160002060020181905550826009600083815260200190815260200160002060030190805190602001906117039291906127c7565b50866009600083815260200190815260200160002060040160006101000a81548173ffffffffffffffffffffffffffffffffffffffff021916908373ffffffffffffffffffffffffffffffffffffffff160217905550600a8190806001815401808255809150509060018203906000526020600020016000909192909190915055508091505095945050505050565b6000600460008473ffffffffffffffffffffffffffffffffffffffff1673ffffffffffffffffffffffffffffffffffffffff16815260200190815260200160002060008373ffffffffffffffffffffffffffffffffffffffff1673ffffffffffffffffffffffffffffffffffffffff16815260200190815260200160002060009054906101000a900460ff16905092915050565b61182e611330565b15156118a2576040517f08c379a00000000000000000000000000000000000000000000000000000000081526004018080602001828103825260208152602001807f4f776e61626c653a2063616c6c6572206973206e6f7420746865206f776e657281525060200191505060405180910390fd5b6118ab816124a5565b50565b600080600060606000808614156118c55760065495505b600073ffffffffffffffffffffffffffffffffffffffff166009600088815260200190815260200160002060040160009054906101000a900473ffffffffffffffffffffffffffffffffffffffff1673ffffffffffffffffffffffffffffffffffffffff16141515156119a0576040517f08c379a00000000000000000000000000000000000000000000000000000000081526004018080602001828103825260128152602001807f44726f6e206e6f207265676973747261646f000000000000000000000000000081525060200191505060405180910390fd5b6009600087815260200190815260200160002060020154600960008881526020019081526020016000206001015460096000898152602001908152602001600020600001547f360b34c8c625d15889af1459e77b2c16d6755883cb0b32d66b021d7f88b50af7600960008b815260200190815260200160002060030160405180806020018281038252838181548152602001915080548015611a8757602002820191906000526020600020906000905b82829054906101000a900460ff1660ff1681526020019060010190602082600001049283019260010382029150808411611a505790505b50509250505060405180910390a4600960008781526020019081526020016000206000015460096000888152602001908152602001600020600101546009600089815260200190815260200160002060020154600960008a8152602001908152602001600020600301600960008b815260200190815260200160002060040160009054906101000a900473ffffffffffffffffffffffffffffffffffffffff1681805480602002602001604051908101604052809291908181526020018280548015611b9857602002820191906000526020600020906000905b82829054906101000a900460ff1660ff1681526020019060010190602082600001049283019260010382029150808411611b615790505b505050505091509450945094509450945091939590929450565b6000806001600084815260200190815260200160002060009054906101000a900473ffffffffffffffffffffffffffffffffffffffff169050600073ffffffffffffffffffffffffffffffffffffffff168173ffffffffffffffffffffffffffffffffffffffff161415915050919050565b6000611c2f82611bb2565b1515611cc9576040517f08c379a000000000000000000000000000000000000000000000000000000000815260040180806020018281038252602c8152602001807f4552433732313a206f70657261746f7220717565727920666f72206e6f6e657881526020017f697374656e7420746f6b656e000000000000000000000000000000000000000081525060400191505060405180910390fd5b6000611cd483610fa2565b90508073ffffffffffffffffffffffffffffffffffffffff168473ffffffffffffffffffffffffffffffffffffffff161480611d4357508373ffffffffffffffffffffffffffffffffffffffff16611d2b84610aa0565b73ffffffffffffffffffffffffffffffffffffffff16145b80611d545750611d538185611792565b5b91505092915050565b8273ffffffffffffffffffffffffffffffffffffffff16611d7d82610fa2565b73ffffffffffffffffffffffffffffffffffffffff16141515611e2e576040517f08c379a00000000000000000000000000000000000000000000000000000000081526004018080602001828103825260298152602001807f4552433732313a207472616e73666572206f6620746f6b656e2074686174206981526020017f73206e6f74206f776e000000000000000000000000000000000000000000000081525060400191505060405180910390fd5b600073ffffffffffffffffffffffffffffffffffffffff168273ffffffffffffffffffffffffffffffffffffffff1614151515611ef9576040517f08c379a00000000000000000000000000000000000000000000000000000000081526004018080602001828103825260248152602001807f4552433732313a207472616e7366657220746f20746865207a65726f2061646481526020017f726573730000000000000000000000000000000000000000000000000000000081525060400191505060405180910390fd5b611f0281612630565b611f49600360008573ffffffffffffffffffffffffffffffffffffffff1673ffffffffffffffffffffffffffffffffffffffff1681526020019081526020016000206126f0565b611f90600360008473ffffffffffffffffffffffffffffffffffffffff1673ffffffffffffffffffffffffffffffffffffffff168152602001908152602001600020612713565b816001600083815260200190815260200160002060006101000a81548173ffffffffffffffffffffffffffffffffffffffff021916908373ffffffffffffffffffffffffffffffffffffffff160217905550808273ffffffffffffffffffffffffffffffffffffffff168473ffffffffffffffffffffffffffffffffffffffff167fddf252ad1be2c89b69c2b068fc378daa952ba7f163c4a11628f55a4df523b3ef60405160405180910390a4505050565b600081600001549050919050565b60006120718473ffffffffffffffffffffffffffffffffffffffff16612729565b1515612080576001905061226b565b60008473ffffffffffffffffffffffffffffffffffffffff1663150b7a02338887876040518563ffffffff167c0100000000000000000000000000000000000000000000000000000000028152600401808573ffffffffffffffffffffffffffffffffffffffff1673ffffffffffffffffffffffffffffffffffffffff1681526020018473ffffffffffffffffffffffffffffffffffffffff1673ffffffffffffffffffffffffffffffffffffffff16815260200183815260200180602001828103825283818151815260200191508051906020019080838360005b8381101561217757808201518184015260208101905061215c565b50505050905090810190601f1680156121a45780820380516001836020036101000a031916815260200191505b5095505050505050602060405180830381600087803b1580156121c657600080fd5b505af11580156121da573d6000803e3d6000fd5b505050506040513d60208110156121f057600080fd5b8101908080519060200190929190505050905063150b7a027c0100000000000000000000000000000000000000000000000000000000027bffffffffffffffffffffffffffffffffffffffffffffffffffffffff1916817bffffffffffffffffffffffffffffffffffffffffffffffffffffffff1916149150505b949350505050565b6000600160065401600681905550600654905090565b600073ffffffffffffffffffffffffffffffffffffffff168273ffffffffffffffffffffffffffffffffffffffff161415151561232e576040517f08c379a00000000000000000000000000000000000000000000000000000000081526004018080602001828103825260208152602001807f4552433732313a206d696e7420746f20746865207a65726f206164647265737381525060200191505060405180910390fd5b61233781611bb2565b1515156123ac576040517f08c379a000000000000000000000000000000000000000000000000000000000815260040180806020018281038252601c8152602001807f4552433732313a20746f6b656e20616c7265616479206d696e7465640000000081525060200191505060405180910390fd5b816001600083815260200190815260200160002060006101000a81548173ffffffffffffffffffffffffffffffffffffffff021916908373ffffffffffffffffffffffffffffffffffffffff160217905550612445600360008473ffffffffffffffffffffffffffffffffffffffff1673ffffffffffffffffffffffffffffffffffffffff168152602001908152602001600020612713565b808273ffffffffffffffffffffffffffffffffffffffff16600073ffffffffffffffffffffffffffffffffffffffff167fddf252ad1be2c89b69c2b068fc378daa952ba7f163c4a11628f55a4df523b3ef60405160405180910390a45050565b600073ffffffffffffffffffffffffffffffffffffffff168173ffffffffffffffffffffffffffffffffffffffff1614151515612570576040517f08c379a00000000000000000000000000000000000000000000000000000000081526004018080602001828103825260268152602001807f4f776e61626c653a206e6577206f776e657220697320746865207a65726f206181526020017f646472657373000000000000000000000000000000000000000000000000000081525060400191505060405180910390fd5b8073ffffffffffffffffffffffffffffffffffffffff16600560009054906101000a900473ffffffffffffffffffffffffffffffffffffffff1673ffffffffffffffffffffffffffffffffffffffff167f8be0079c531659141344cd1fd0a4f28419497f9722a3daafe3b4186f6b6457e060405160405180910390a380600560006101000a81548173ffffffffffffffffffffffffffffffffffffffff021916908373ffffffffffffffffffffffffffffffffffffffff16021790555050565b600073ffffffffffffffffffffffffffffffffffffffff166002600083815260200190815260200160002060009054906101000a900473ffffffffffffffffffffffffffffffffffffffff1673ffffffffffffffffffffffffffffffffffffffff161415156126ed5760006002600083815260200190815260200160002060006101000a81548173ffffffffffffffffffffffffffffffffffffffff021916908373ffffffffffffffffffffffffffffffffffffffff1602179055505b50565b6127086001826000015461273c90919063ffffffff16565b816000018190555050565b6001816000016000828254019250508190555050565b600080823b905060008111915050919050565b60008282111515156127b6576040517f08c379a000000000000000000000000000000000000000000000000000000000815260040180806020018281038252601e8152602001807f536166654d6174683a207375627472616374696f6e206f766572666c6f77000081525060200191505060405180910390fd5b600082840390508091505092915050565b82805482825590600052602060002090601f0160209004810192821561285d5791602002820160005b8382111561282e57835183826101000a81548160ff021916908360ff16021790555092602001926001016020816000010492830192600103026127f0565b801561285b5782816101000a81549060ff021916905560010160208160000104928301926001030261282e565b505b50905061286a919061286e565b5090565b61289b91905b8082111561289757600081816101000a81549060ff021916905550600101612874565b5090565b9056fea165627a7a72305820dc7370a46f34847dd4797bf5979ccde153978ac4c283e3f4db0bf4c0bc51eed40029",
  "source": "// SPDX-License-Identifier: MIT\r\npragma solidity >=0.5.0;\r\n//pragma experimental ABIEncoderV2;\r\n\r\nimport \"./BaseNFT.sol\";\r\n\r\n\r\n//contract DronTokenColeccion is BaseNFT{}\r\n\r\ncontract DronToken is BaseNFT {\r\n\r\n    //uint256 public lastId = 0;\r\n\r\n    struct properties{\r\n        uint256 max_Height;\r\n        uint256 min_Height;\r\n        uint256 cost;\r\n        uint8[] pesticides;\r\n        address owner;\r\n    }\r\n    //properties _properties;    \r\n    mapping (uint256 => properties) dron_list;\r\n    uint256[] _all_dron_ids;\r\n\r\n    //constructor(string memory name_, string memory symbol_, address owner_, uint256 max_Height_, uint256 min_Height_, uint256 cost_, Pesticide[] memory pesticides_) BaseNFT(name_, symbol_, owner_) {        \r\n    constructor() BaseNFT() public{ \r\n        _uri = \"\";\r\n    }    \r\n\r\n    function mint(address owner_, uint256 max_Height_, uint256 min_Height_, uint256 cost_, uint8[] memory pesticides_) onlyOwner public returns(uint256) {        \r\n        uint256 id = _getNewId();\r\n        ERC721._mint( owner_, id);\r\n\r\n        dron_list[id].max_Height = max_Height_;\r\n        dron_list[id].min_Height = min_Height_;\r\n        dron_list[id].cost = cost_;\r\n        dron_list[id].pesticides = pesticides_;\r\n        dron_list[id].owner = owner_;\r\n        _all_dron_ids.push(id);\r\n        return id;\r\n    }\r\n\r\n    \r\n    event DronInfo (uint256 indexed max_Height, uint256 indexed min_Height, uint256 indexed cost, uint8[] pesticides);\r\n\r\n    function getDronInfo(uint256 id_) public returns (uint256 max_Height, \r\n                                                      uint256 min_Height, \r\n                                                      uint256 cost, \r\n                                                      uint8[] memory  pesticides, \r\n                                                      address owner)\r\n    {\r\n        if (id_ == 0){\r\n            id_ = last_id;\r\n        }\r\n        \r\n        require(dron_list[id_].owner != address(0x0), \"Dron no registrado\");\r\n        \r\n//        print(dron_list[id_].max_Height);\r\n        emit DronInfo(  dron_list[id_].max_Height, \r\n                        dron_list[id_].min_Height, \r\n                        dron_list[id_].cost, \r\n                        dron_list[id_].pesticides);\r\n\r\n        return (dron_list[id_].max_Height, \r\n                dron_list[id_].min_Height, \r\n                dron_list[id_].cost, \r\n                dron_list[id_].pesticides, \r\n                dron_list[id_].owner );\r\n    }\r\n\r\n    function getDronCost(uint256 id_) public view returns (uint256){\r\n        return dron_list[id_].cost;\r\n    }\r\n\r\n    function getDronByFilters(uint256 max_Height_,uint256 min_Height_, uint8 pesticide_, uint256 start_point_) public view returns (uint256){\r\n        uint8 stop = 0;\r\n        uint256 i = start_point_;\r\n        uint256 dron_id = 0;\r\n        while (stop == 0)\r\n        {\r\n            if (i > last_id){\r\n                stop = 1;\r\n            } \r\n            else{            \r\n                if (dron_list[i].min_Height <= max_Height_ &&\r\n                    dron_list[i].max_Height >= min_Height_ &&\r\n                    dron_list[i].pesticides[pesticide_] == 1 ){\r\n                        dron_id = i;\r\n                        stop = 1;\r\n                }\r\n            }\r\n            i++;\r\n        }\r\n        return dron_id;\r\n    }\r\n\r\n\r\n    // function getAllDronsText() public view returns (properties[] memory){\r\n    //     properties[] memory resu;\r\n    //     uint256 i;\r\n    //     uint dron_id;\r\n    //     for (i = 0; i< _all_dron_ids.length; i++){\r\n    //         dron_id = _all_dron_ids[i];\r\n    //         resu.push(dron_list[dron_id]);\r\n    //     }\r\n    // }\r\n    // function getAllDronsText() public view returns (string[] memory){\r\n\r\n    //     string[] resu;\r\n    //     uint256 i;\r\n\r\n    //     for (i = 0; i< dron_list.lenth; i++){\r\n    //         resu.push(dron_list[id_].max_Height, \r\n    //                   dron_list[id_].min_Height, \r\n    //                   dron_list[id_].cost, \r\n    //                   dron_list[id_].pesticides, \r\n    //                   dron_list[id_].owner )\r\n    //     }\r\n\r\n\r\n    //     properties[] memory resu;\r\n    //     return resu;\r\n    // }\r\n\r\n    // dron_list[id_].max_Height, \r\n    //             dron_list[id_].min_Height, \r\n    //             dron_list[id_].cost, \r\n    //             dron_list[id_].pesticides, \r\n    //             dron_list[id_].owner \r\n\r\n}",
  "sourcePath": "/home/usuario/tfe/fumdapp/src/contracts/Dron.sol",
  "compiler": {
    "name": "solc",
    "version": "0.5.1+commit.c8a2cb62.Emscripten.clang"
  },
  "schemaVersion": "3.0.9",
  "updatedAt": "2022-06-30T21:35:31.214Z",
  "devdoc": {
    "methods": {
      "approve(address,uint256)": {
        "details": "Approves another address to transfer the given token ID The zero address indicates there is no approved address. There can only be one approved address per token at a given time. Can only be called by the token owner or an approved operator.",
        "params": {
          "to": "address to be approved for the given token ID",
          "tokenId": "uint256 ID of the token to be approved"
        }
      },
      "balanceOf(address)": {
        "details": "Gets the balance of the specified address.",
        "params": {
          "owner": "address to query the balance of"
        },
        "return": "uint256 representing the amount owned by the passed address"
      },
      "getApproved(uint256)": {
        "details": "Gets the approved address for a token ID, or zero if no address set Reverts if the token ID does not exist.",
        "params": {
          "tokenId": "uint256 ID of the token to query the approval of"
        },
        "return": "address currently approved for the given token ID"
      },
      "isApprovedForAll(address,address)": {
        "details": "Tells whether an operator is approved by a given owner.",
        "params": {
          "operator": "operator address which you want to query the approval of",
          "owner": "owner address which you want to query the approval of"
        },
        "return": "bool whether the given operator is approved by the given owner"
      },
      "isOwner()": {
        "details": "Returns true if the caller is the current owner."
      },
      "owner()": {
        "details": "Returns the address of the current owner."
      },
      "ownerOf(uint256)": {
        "details": "Gets the owner of the specified token ID.",
        "params": {
          "tokenId": "uint256 ID of the token to query the owner of"
        },
        "return": "address currently marked as the owner of the given token ID"
      },
      "renounceOwnership()": {
        "details": "Leaves the contract without owner. It will not be possible to call `onlyOwner` functions anymore. Can only be called by the current owner.     * > Note: Renouncing ownership will leave the contract without an owner, thereby removing any functionality that is only available to the owner."
      },
      "safeTransferFrom(address,address,uint256)": {
        "details": "Safely transfers the ownership of a given token ID to another address If the target address is a contract, it must implement `onERC721Received`, which is called upon a safe transfer, and return the magic value `bytes4(keccak256(\"onERC721Received(address,address,uint256,bytes)\"))`; otherwise, the transfer is reverted. Requires the msg.sender to be the owner, approved, or operator",
        "params": {
          "from": "current owner of the token",
          "to": "address to receive the ownership of the given token ID",
          "tokenId": "uint256 ID of the token to be transferred"
        }
      },
      "safeTransferFrom(address,address,uint256,bytes)": {
        "details": "Safely transfers the ownership of a given token ID to another address If the target address is a contract, it must implement `onERC721Received`, which is called upon a safe transfer, and return the magic value `bytes4(keccak256(\"onERC721Received(address,address,uint256,bytes)\"))`; otherwise, the transfer is reverted. Requires the msg.sender to be the owner, approved, or operator",
        "params": {
          "_data": "bytes data to send along with a safe transfer check",
          "from": "current owner of the token",
          "to": "address to receive the ownership of the given token ID",
          "tokenId": "uint256 ID of the token to be transferred"
        }
      },
      "setApprovalForAll(address,bool)": {
        "details": "Sets or unsets the approval of a given operator An operator is allowed to transfer all tokens of the sender on their behalf.",
        "params": {
          "approved": "representing the status of the approval to be set",
          "to": "operator address to set the approval"
        }
      },
      "supportsInterface(bytes4)": {
        "details": "See `IERC165.supportsInterface`.     * Time complexity O(1), guaranteed to always use less than 30 000 gas."
      },
      "transferFrom(address,address,uint256)": {
        "details": "Transfers the ownership of a given token ID to another address. Usage of this method is discouraged, use `safeTransferFrom` whenever possible. Requires the msg.sender to be the owner, approved, or operator.",
        "params": {
          "from": "current owner of the token",
          "to": "address to receive the ownership of the given token ID",
          "tokenId": "uint256 ID of the token to be transferred"
        }
      },
      "transferOwnership(address)": {
        "details": "Transfers ownership of the contract to a new account (`newOwner`). Can only be called by the current owner."
      }
    }
  },
  "userdoc": {
    "methods": {}
  }
}